{
  "_format": "hh-sol-artifact-1",
  "contractName": "DestinationGreeter",
  "sourceName": "contracts/DestinationGreeter.sol",
  "abi": [
    {
      "inputs": [
        {
          "internalType": "address",
          "name": "_token",
          "type": "address"
        },
        {
          "internalType": "contract ISwapRouter",
          "name": "_swapRouter",
          "type": "address"
        }
      ],
      "stateMutability": "nonpayable",
      "type": "constructor"
    },
    {
      "anonymous": false,
      "inputs": [
        {
          "indexed": false,
          "internalType": "bytes32",
          "name": "transferId",
          "type": "bytes32"
        },
        {
          "indexed": false,
          "internalType": "string",
          "name": "txId",
          "type": "string"
        }
      ],
      "name": "SwapFailed",
      "type": "event"
    },
    {
      "anonymous": false,
      "inputs": [
        {
          "indexed": true,
          "internalType": "string",
          "name": "txId",
          "type": "string"
        },
        {
          "indexed": false,
          "internalType": "address",
          "name": "from",
          "type": "address"
        },
        {
          "indexed": false,
          "internalType": "address",
          "name": "_token",
          "type": "address"
        },
        {
          "indexed": false,
          "internalType": "uint256",
          "name": "amount",
          "type": "uint256"
        },
        {
          "indexed": false,
          "internalType": "bytes32",
          "name": "transferId",
          "type": "bytes32"
        }
      ],
      "name": "TransferCompleted",
      "type": "event"
    },
    {
      "inputs": [],
      "name": "amountOut",
      "outputs": [
        {
          "internalType": "uint256",
          "name": "",
          "type": "uint256"
        }
      ],
      "stateMutability": "view",
      "type": "function"
    },
    {
      "inputs": [],
      "name": "greeting",
      "outputs": [
        {
          "internalType": "string",
          "name": "",
          "type": "string"
        }
      ],
      "stateMutability": "view",
      "type": "function"
    },
    {
      "inputs": [],
      "name": "owner",
      "outputs": [
        {
          "internalType": "address",
          "name": "",
          "type": "address"
        }
      ],
      "stateMutability": "view",
      "type": "function"
    },
    {
      "inputs": [
        {
          "internalType": "address",
          "name": "tokenIn",
          "type": "address"
        },
        {
          "internalType": "address",
          "name": "tokenOut",
          "type": "address"
        },
        {
          "internalType": "uint24",
          "name": "fee",
          "type": "uint24"
        },
        {
          "internalType": "string",
          "name": "txId",
          "type": "string"
        },
        {
          "internalType": "bytes32",
          "name": "transferId",
          "type": "bytes32"
        }
      ],
      "name": "swap",
      "outputs": [
        {
          "internalType": "uint256",
          "name": "amountOut",
          "type": "uint256"
        }
      ],
      "stateMutability": "payable",
      "type": "function"
    },
    {
      "inputs": [],
      "name": "token",
      "outputs": [
        {
          "internalType": "address",
          "name": "",
          "type": "address"
        }
      ],
      "stateMutability": "view",
      "type": "function"
    },
    {
      "inputs": [
        {
          "internalType": "string",
          "name": "",
          "type": "string"
        }
      ],
      "name": "txStatus",
      "outputs": [
        {
          "internalType": "string",
          "name": "",
          "type": "string"
        }
      ],
      "stateMutability": "view",
      "type": "function"
    },
    {
      "inputs": [
        {
          "internalType": "address",
          "name": "_token",
          "type": "address"
        }
      ],
      "name": "updateToken",
      "outputs": [],
      "stateMutability": "nonpayable",
      "type": "function"
    },
    {
      "inputs": [
        {
          "internalType": "address",
          "name": "_token",
          "type": "address"
        },
        {
          "internalType": "uint256",
          "name": "_amount",
          "type": "uint256"
        }
      ],
      "name": "withdrawToken",
      "outputs": [],
      "stateMutability": "nonpayable",
      "type": "function"
    },
    {
      "inputs": [
        {
          "internalType": "bytes32",
          "name": "_transferId",
          "type": "bytes32"
        },
        {
          "internalType": "uint256",
          "name": "_amount",
          "type": "uint256"
        },
        {
          "internalType": "address",
          "name": "_asset",
          "type": "address"
        },
        {
          "internalType": "address",
          "name": "_originSender",
          "type": "address"
        },
        {
          "internalType": "uint32",
          "name": "_origin",
          "type": "uint32"
        },
        {
          "internalType": "bytes",
          "name": "_callData",
          "type": "bytes"
        }
      ],
      "name": "xReceive",
      "outputs": [
        {
          "internalType": "bytes",
          "name": "",
          "type": "bytes"
        }
      ],
      "stateMutability": "nonpayable",
      "type": "function"
    }
  ],
  "bytecode": "0x60806040523480156200001157600080fd5b5060405162001ad638038062001ad68339818101604052810190620000379190620001b1565b80600560006101000a81548173ffffffffffffffffffffffffffffffffffffffff021916908373ffffffffffffffffffffffffffffffffffffffff16021790555081600460006101000a81548173ffffffffffffffffffffffffffffffffffffffff021916908373ffffffffffffffffffffffffffffffffffffffff16021790555033600160006101000a81548173ffffffffffffffffffffffffffffffffffffffff021916908373ffffffffffffffffffffffffffffffffffffffff1602179055505050620001f8565b600080fd5b600073ffffffffffffffffffffffffffffffffffffffff82169050919050565b6000620001348262000107565b9050919050565b620001468162000127565b81146200015257600080fd5b50565b60008151905062000166816200013b565b92915050565b6000620001798262000127565b9050919050565b6200018b816200016c565b81146200019757600080fd5b50565b600081519050620001ab8162000180565b92915050565b60008060408385031215620001cb57620001ca62000102565b5b6000620001db8582860162000155565b9250506020620001ee858286016200019a565b9150509250929050565b6118ce80620002086000396000f3fe6080604052600436106100865760003560e01c80639e281a98116100595780639e281a981461013a578063ef690cc014610163578063f02353121461018e578063fc0c546a146101cb578063fd614f41146101f657610086565b806346ee8d001461008b5780637ad3def2146100b65780638da5cb5b146100df578063963571451461010a575b600080fd5b34801561009757600080fd5b506100a0610233565b6040516100ad9190610ad5565b60405180910390f35b3480156100c257600080fd5b506100dd60048036038101906100d89190610b62565b610239565b005b3480156100eb57600080fd5b506100f46102d7565b6040516101019190610b9e565b60405180910390f35b610124600480360381019061011f9190610d70565b6102fd565b6040516101319190610ad5565b60405180910390f35b34801561014657600080fd5b50610161600480360381019061015c9190610e33565b6105c7565b005b34801561016f57600080fd5b50610178610753565b6040516101859190610ef2565b60405180910390f35b34801561019a57600080fd5b506101b560048036038101906101b09190610f14565b6107e1565b6040516101c29190610ef2565b60405180910390f35b3480156101d757600080fd5b506101e0610897565b6040516101ed9190610b9e565b60405180910390f35b34801561020257600080fd5b5061021d6004803603810190610218919061103a565b6108bd565b60405161022a9190611138565b60405180910390f35b60025481565b600160009054906101000a900473ffffffffffffffffffffffffffffffffffffffff1673ffffffffffffffffffffffffffffffffffffffff163373ffffffffffffffffffffffffffffffffffffffff161461029357600080fd5b80600460006101000a81548173ffffffffffffffffffffffffffffffffffffffff021916908373ffffffffffffffffffffffffffffffffffffffff16021790555050565b600160009054906101000a900473ffffffffffffffffffffffffffffffffffffffff1681565b6000808490506000808891508173ffffffffffffffffffffffffffffffffffffffff166370a08231306040518263ffffffff1660e01b81526004016103429190610b9e565b602060405180830381865afa15801561035f573d6000803e3d6000fd5b505050506040513d601f19601f82011682018060405250810190610383919061116f565b90508093508173ffffffffffffffffffffffffffffffffffffffff1663095ea7b3600560009054906101000a900473ffffffffffffffffffffffffffffffffffffffff16836040518363ffffffff1660e01b81526004016103e592919061119c565b6020604051808303816000875af1158015610404573d6000803e3d6000fd5b505050506040513d601f19601f8201168201806040525081019061042891906111fd565b5060006040518061010001604052808b73ffffffffffffffffffffffffffffffffffffffff1681526020018a73ffffffffffffffffffffffffffffffffffffffff1681526020018562ffffff1681526020013073ffffffffffffffffffffffffffffffffffffffff168152602001617530426104a49190611259565b815260200183815260200160008152602001600073ffffffffffffffffffffffffffffffffffffffff168152509050600560009054906101000a900473ffffffffffffffffffffffffffffffffffffffff1673ffffffffffffffffffffffffffffffffffffffff1663414bf389826040518263ffffffff1660e01b815260040161052e919061136b565b6020604051808303816000875af192505050801561056a57506040513d601f19601f82011682018060405250810190610567919061116f565b60015b6105ac577fa44aaf67db77915b69a8df87c3b384b874d389b5e297ce7df5cdd2dc61a3c194868860405161059f929190611396565b60405180910390a16105b9565b80955050505050506105be565b505050505b95945050505050565b600160009054906101000a900473ffffffffffffffffffffffffffffffffffffffff1673ffffffffffffffffffffffffffffffffffffffff163373ffffffffffffffffffffffffffffffffffffffff161461062157600080fd5b6000829050818173ffffffffffffffffffffffffffffffffffffffff166370a08231306040518263ffffffff1660e01b81526004016106609190610b9e565b602060405180830381865afa15801561067d573d6000803e3d6000fd5b505050506040513d601f19601f820116820180604052508101906106a1919061116f565b116106ab57600080fd5b8073ffffffffffffffffffffffffffffffffffffffff166323b872dd30600160009054906101000a900473ffffffffffffffffffffffffffffffffffffffff16856040518463ffffffff1660e01b815260040161070a939291906113c6565b6020604051808303816000875af1158015610729573d6000803e3d6000fd5b505050506040513d601f19601f8201168201806040525081019061074d91906111fd565b50505050565b600080546107609061142c565b80601f016020809104026020016040519081016040528092919081815260200182805461078c9061142c565b80156107d95780601f106107ae576101008083540402835291602001916107d9565b820191906000526020600020905b8154815290600101906020018083116107bc57829003601f168201915b505050505081565b60038180516020810182018051848252602083016020850120818352809550505050505060009150905080546108169061142c565b80601f01602080910402602001604051908101604052809291908181526020018280546108429061142c565b801561088f5780601f106108645761010080835404028352916020019161088f565b820191906000526020600020905b81548152906001019060200180831161087257829003601f168201915b505050505081565b600460009054906101000a900473ffffffffffffffffffffffffffffffffffffffff1681565b606060008611610902576040517f08c379a00000000000000000000000000000000000000000000000000000000081526004016108f9906114a9565b60405180910390fd5b6000828060200190518101906109189190611539565b90506000610bb89050600460009054906101000a900473ffffffffffffffffffffffffffffffffffffffff1673ffffffffffffffffffffffffffffffffffffffff168773ffffffffffffffffffffffffffffffffffffffff16146109fd5760006109a788600460009054906101000a900473ffffffffffffffffffffffffffffffffffffffff1684868e6102fd565b9050826040516109b791906115be565b60405180910390207e60698de6efe92aee246242a18ba6b13667729e505c416592694fe97f4ba2af888a848e6040516109f394939291906115d5565b60405180910390a2505b81604051610a0b91906115be565b60405180910390207e60698de6efe92aee246242a18ba6b13667729e505c416592694fe97f4ba2af87898b8d604051610a4794939291906115d5565b60405180910390a26040518060400160405280600981526020017f436f6d706c657465640000000000000000000000000000000000000000000000815250600383604051610a9591906115be565b90815260200160405180910390209081610aaf91906117c6565b5050509695505050505050565b6000819050919050565b610acf81610abc565b82525050565b6000602082019050610aea6000830184610ac6565b92915050565b6000604051905090565b600080fd5b600080fd5b600073ffffffffffffffffffffffffffffffffffffffff82169050919050565b6000610b2f82610b04565b9050919050565b610b3f81610b24565b8114610b4a57600080fd5b50565b600081359050610b5c81610b36565b92915050565b600060208284031215610b7857610b77610afa565b5b6000610b8684828501610b4d565b91505092915050565b610b9881610b24565b82525050565b6000602082019050610bb36000830184610b8f565b92915050565b600062ffffff82169050919050565b610bd181610bb9565b8114610bdc57600080fd5b50565b600081359050610bee81610bc8565b92915050565b600080fd5b600080fd5b6000601f19601f8301169050919050565b7f4e487b7100000000000000000000000000000000000000000000000000000000600052604160045260246000fd5b610c4782610bfe565b810181811067ffffffffffffffff82111715610c6657610c65610c0f565b5b80604052505050565b6000610c79610af0565b9050610c858282610c3e565b919050565b600067ffffffffffffffff821115610ca557610ca4610c0f565b5b610cae82610bfe565b9050602081019050919050565b82818337600083830152505050565b6000610cdd610cd884610c8a565b610c6f565b905082815260208101848484011115610cf957610cf8610bf9565b5b610d04848285610cbb565b509392505050565b600082601f830112610d2157610d20610bf4565b5b8135610d31848260208601610cca565b91505092915050565b6000819050919050565b610d4d81610d3a565b8114610d5857600080fd5b50565b600081359050610d6a81610d44565b92915050565b600080600080600060a08688031215610d8c57610d8b610afa565b5b6000610d9a88828901610b4d565b9550506020610dab88828901610b4d565b9450506040610dbc88828901610bdf565b935050606086013567ffffffffffffffff811115610ddd57610ddc610aff565b5b610de988828901610d0c565b9250506080610dfa88828901610d5b565b9150509295509295909350565b610e1081610abc565b8114610e1b57600080fd5b50565b600081359050610e2d81610e07565b92915050565b60008060408385031215610e4a57610e49610afa565b5b6000610e5885828601610b4d565b9250506020610e6985828601610e1e565b9150509250929050565b600081519050919050565b600082825260208201905092915050565b60005b83811015610ead578082015181840152602081019050610e92565b60008484015250505050565b6000610ec482610e73565b610ece8185610e7e565b9350610ede818560208601610e8f565b610ee781610bfe565b840191505092915050565b60006020820190508181036000830152610f0c8184610eb9565b905092915050565b600060208284031215610f2a57610f29610afa565b5b600082013567ffffffffffffffff811115610f4857610f47610aff565b5b610f5484828501610d0c565b91505092915050565b600063ffffffff82169050919050565b610f7681610f5d565b8114610f8157600080fd5b50565b600081359050610f9381610f6d565b92915050565b600067ffffffffffffffff821115610fb457610fb3610c0f565b5b610fbd82610bfe565b9050602081019050919050565b6000610fdd610fd884610f99565b610c6f565b905082815260208101848484011115610ff957610ff8610bf9565b5b611004848285610cbb565b509392505050565b600082601f83011261102157611020610bf4565b5b8135611031848260208601610fca565b91505092915050565b60008060008060008060c0878903121561105757611056610afa565b5b600061106589828a01610d5b565b965050602061107689828a01610e1e565b955050604061108789828a01610b4d565b945050606061109889828a01610b4d565b93505060806110a989828a01610f84565b92505060a087013567ffffffffffffffff8111156110ca576110c9610aff565b5b6110d689828a0161100c565b9150509295509295509295565b600081519050919050565b600082825260208201905092915050565b600061110a826110e3565b61111481856110ee565b9350611124818560208601610e8f565b61112d81610bfe565b840191505092915050565b6000602082019050818103600083015261115281846110ff565b905092915050565b60008151905061116981610e07565b92915050565b60006020828403121561118557611184610afa565b5b60006111938482850161115a565b91505092915050565b60006040820190506111b16000830185610b8f565b6111be6020830184610ac6565b9392505050565b60008115159050919050565b6111da816111c5565b81146111e557600080fd5b50565b6000815190506111f7816111d1565b92915050565b60006020828403121561121357611212610afa565b5b6000611221848285016111e8565b91505092915050565b7f4e487b7100000000000000000000000000000000000000000000000000000000600052601160045260246000fd5b600061126482610abc565b915061126f83610abc565b92508282019050808211156112875761128661122a565b5b92915050565b61129681610b24565b82525050565b6112a581610bb9565b82525050565b6112b481610abc565b82525050565b6112c381610b04565b82525050565b610100820160008201516112e0600085018261128d565b5060208201516112f3602085018261128d565b506040820151611306604085018261129c565b506060820151611319606085018261128d565b50608082015161132c60808501826112ab565b5060a082015161133f60a08501826112ab565b5060c082015161135260c08501826112ab565b5060e082015161136560e08501826112ba565b50505050565b60006101008201905061138160008301846112c9565b92915050565b61139081610d3a565b82525050565b60006040820190506113ab6000830185611387565b81810360208301526113bd8184610eb9565b90509392505050565b60006060820190506113db6000830186610b8f565b6113e86020830185610b8f565b6113f56040830184610ac6565b949350505050565b7f4e487b7100000000000000000000000000000000000000000000000000000000600052602260045260246000fd5b6000600282049050600182168061144457607f821691505b602082108103611457576114566113fd565b5b50919050565b7f4d75737420706179206174206c65617374203120776569000000000000000000600082015250565b6000611493601783610e7e565b915061149e8261145d565b602082019050919050565b600060208201905081810360008301526114c281611486565b9050919050565b60006114dc6114d784610c8a565b610c6f565b9050828152602081018484840111156114f8576114f7610bf9565b5b611503848285610e8f565b509392505050565b600082601f8301126115205761151f610bf4565b5b81516115308482602086016114c9565b91505092915050565b60006020828403121561154f5761154e610afa565b5b600082015167ffffffffffffffff81111561156d5761156c610aff565b5b6115798482850161150b565b91505092915050565b600081905092915050565b600061159882610e73565b6115a28185611582565b93506115b2818560208601610e8f565b80840191505092915050565b60006115ca828461158d565b915081905092915050565b60006080820190506115ea6000830187610b8f565b6115f76020830186610b8f565b6116046040830185610ac6565b6116116060830184611387565b95945050505050565b60008190508160005260206000209050919050565b60006020601f8301049050919050565b600082821b905092915050565b60006008830261167c7fffffffffffffffffffffffffffffffffffffffffffffffffffffffffffffffff8261163f565b611686868361163f565b95508019841693508086168417925050509392505050565b6000819050919050565b60006116c36116be6116b984610abc565b61169e565b610abc565b9050919050565b6000819050919050565b6116dd836116a8565b6116f16116e9826116ca565b84845461164c565b825550505050565b600090565b6117066116f9565b6117118184846116d4565b505050565b5b818110156117355761172a6000826116fe565b600181019050611717565b5050565b601f82111561177a5761174b8161161a565b6117548461162f565b81016020851015611763578190505b61177761176f8561162f565b830182611716565b50505b505050565b600082821c905092915050565b600061179d6000198460080261177f565b1980831691505092915050565b60006117b6838361178c565b9150826002028217905092915050565b6117cf82610e73565b67ffffffffffffffff8111156117e8576117e7610c0f565b5b6117f2825461142c565b6117fd828285611739565b600060209050601f831160018114611830576000841561181e578287015190505b61182885826117aa565b865550611890565b601f19841661183e8661161a565b60005b8281101561186657848901518255600182019150602085019450602081019050611841565b86831015611883578489015161187f601f89168261178c565b8355505b6001600288020188555050505b50505050505056fea264697066735822122086f3795767ca3f72679441f4821640b562f9fa05b8213e5aadcb8b37bd5bf07664736f6c63430008150033",
  "linkReferences": {},
  "deployedLinkReferences": {}
}