{
  "_format": "hh-sol-artifact-1",
  "contractName": "DestinationGreeter",
  "sourceName": "contracts/DestinationGreeter.sol",
  "abi": [
    {
      "inputs": [
        {
          "internalType": "address",
          "name": "_token",
          "type": "address"
        },
        {
          "internalType": "contract ISwapRouter",
          "name": "_swapRouter",
          "type": "address"
        }
      ],
      "stateMutability": "nonpayable",
      "type": "constructor"
    },
    {
      "anonymous": false,
      "inputs": [
        {
          "indexed": false,
          "internalType": "bytes32",
          "name": "transferId",
          "type": "bytes32"
        },
        {
          "indexed": false,
          "internalType": "string",
          "name": "txId",
          "type": "string"
        }
      ],
      "name": "SwapFailed",
      "type": "event"
    },
    {
      "anonymous": false,
      "inputs": [
        {
          "indexed": true,
          "internalType": "string",
          "name": "txId",
          "type": "string"
        },
        {
          "indexed": false,
          "internalType": "address",
          "name": "from",
          "type": "address"
        },
        {
          "indexed": false,
          "internalType": "address",
          "name": "_token",
          "type": "address"
        },
        {
          "indexed": false,
          "internalType": "uint256",
          "name": "amount",
          "type": "uint256"
        },
        {
          "indexed": false,
          "internalType": "bytes32",
          "name": "transferId",
          "type": "bytes32"
        }
      ],
      "name": "TransferCompleted",
      "type": "event"
    },
    {
      "inputs": [],
      "name": "greeting",
      "outputs": [
        {
          "internalType": "string",
          "name": "",
          "type": "string"
        }
      ],
      "stateMutability": "view",
      "type": "function"
    },
    {
      "inputs": [],
      "name": "owner",
      "outputs": [
        {
          "internalType": "address",
          "name": "",
          "type": "address"
        }
      ],
      "stateMutability": "view",
      "type": "function"
    },
    {
      "inputs": [
        {
          "internalType": "address",
          "name": "tokenIn",
          "type": "address"
        },
        {
          "internalType": "address",
          "name": "tokenOut",
          "type": "address"
        },
        {
          "internalType": "uint24",
          "name": "fee",
          "type": "uint24"
        },
        {
          "internalType": "string",
          "name": "txId",
          "type": "string"
        },
        {
          "internalType": "bytes32",
          "name": "transferId",
          "type": "bytes32"
        }
      ],
      "name": "swap",
      "outputs": [
        {
          "internalType": "uint256",
          "name": "amountOut",
          "type": "uint256"
        }
      ],
      "stateMutability": "payable",
      "type": "function"
    },
    {
      "inputs": [],
      "name": "token",
      "outputs": [
        {
          "internalType": "address",
          "name": "",
          "type": "address"
        }
      ],
      "stateMutability": "view",
      "type": "function"
    },
    {
      "inputs": [
        {
          "internalType": "string",
          "name": "",
          "type": "string"
        }
      ],
      "name": "txStatus",
      "outputs": [
        {
          "internalType": "string",
          "name": "",
          "type": "string"
        }
      ],
      "stateMutability": "view",
      "type": "function"
    },
    {
      "inputs": [
        {
          "internalType": "address",
          "name": "_token",
          "type": "address"
        }
      ],
      "name": "updateToken",
      "outputs": [],
      "stateMutability": "nonpayable",
      "type": "function"
    },
    {
      "inputs": [
        {
          "internalType": "address",
          "name": "_token",
          "type": "address"
        },
        {
          "internalType": "uint256",
          "name": "_amount",
          "type": "uint256"
        }
      ],
      "name": "withdrawToken",
      "outputs": [],
      "stateMutability": "nonpayable",
      "type": "function"
    },
    {
      "inputs": [
        {
          "internalType": "bytes32",
          "name": "_transferId",
          "type": "bytes32"
        },
        {
          "internalType": "uint256",
          "name": "_amount",
          "type": "uint256"
        },
        {
          "internalType": "address",
          "name": "_asset",
          "type": "address"
        },
        {
          "internalType": "address",
          "name": "_originSender",
          "type": "address"
        },
        {
          "internalType": "uint32",
          "name": "_origin",
          "type": "uint32"
        },
        {
          "internalType": "bytes",
          "name": "_callData",
          "type": "bytes"
        }
      ],
      "name": "xReceive",
      "outputs": [
        {
          "internalType": "bytes",
          "name": "",
          "type": "bytes"
        }
      ],
      "stateMutability": "nonpayable",
      "type": "function"
    }
  ],
  "bytecode": "0x60806040523480156200001157600080fd5b5060405162001a9f38038062001a9f8339818101604052810190620000379190620001b1565b80600460006101000a81548173ffffffffffffffffffffffffffffffffffffffff021916908373ffffffffffffffffffffffffffffffffffffffff16021790555081600360006101000a81548173ffffffffffffffffffffffffffffffffffffffff021916908373ffffffffffffffffffffffffffffffffffffffff16021790555033600160006101000a81548173ffffffffffffffffffffffffffffffffffffffff021916908373ffffffffffffffffffffffffffffffffffffffff1602179055505050620001f8565b600080fd5b600073ffffffffffffffffffffffffffffffffffffffff82169050919050565b6000620001348262000107565b9050919050565b620001468162000127565b81146200015257600080fd5b50565b60008151905062000166816200013b565b92915050565b6000620001798262000127565b9050919050565b6200018b816200016c565b81146200019757600080fd5b50565b600081519050620001ab8162000180565b92915050565b60008060408385031215620001cb57620001ca62000102565b5b6000620001db8582860162000155565b9250506020620001ee858286016200019a565b9150509250929050565b61189780620002086000396000f3fe60806040526004361061007b5760003560e01c8063ef690cc01161004e578063ef690cc01461012d578063f023531214610158578063fc0c546a14610195578063fd614f41146101c05761007b565b80637ad3def2146100805780638da5cb5b146100a957806396357145146100d45780639e281a9814610104575b600080fd5b34801561008c57600080fd5b506100a760048036038101906100a29190610af7565b6101fd565b005b3480156100b557600080fd5b506100be61029b565b6040516100cb9190610b33565b60405180910390f35b6100ee60048036038101906100e99190610d05565b6102c1565b6040516100fb9190610db5565b60405180910390f35b34801561011057600080fd5b5061012b60048036038101906101269190610dfc565b61058b565b005b34801561013957600080fd5b50610142610717565b60405161014f9190610ebb565b60405180910390f35b34801561016457600080fd5b5061017f600480360381019061017a9190610edd565b6107a5565b60405161018c9190610ebb565b60405180910390f35b3480156101a157600080fd5b506101aa61085b565b6040516101b79190610b33565b60405180910390f35b3480156101cc57600080fd5b506101e760048036038101906101e29190611003565b610881565b6040516101f49190611101565b60405180910390f35b600160009054906101000a900473ffffffffffffffffffffffffffffffffffffffff1673ffffffffffffffffffffffffffffffffffffffff163373ffffffffffffffffffffffffffffffffffffffff161461025757600080fd5b80600360006101000a81548173ffffffffffffffffffffffffffffffffffffffff021916908373ffffffffffffffffffffffffffffffffffffffff16021790555050565b600160009054906101000a900473ffffffffffffffffffffffffffffffffffffffff1681565b6000808490506000808891508173ffffffffffffffffffffffffffffffffffffffff166370a08231306040518263ffffffff1660e01b81526004016103069190610b33565b602060405180830381865afa158015610323573d6000803e3d6000fd5b505050506040513d601f19601f820116820180604052508101906103479190611138565b90508093508173ffffffffffffffffffffffffffffffffffffffff1663095ea7b3600460009054906101000a900473ffffffffffffffffffffffffffffffffffffffff16836040518363ffffffff1660e01b81526004016103a9929190611165565b6020604051808303816000875af11580156103c8573d6000803e3d6000fd5b505050506040513d601f19601f820116820180604052508101906103ec91906111c6565b5060006040518061010001604052808b73ffffffffffffffffffffffffffffffffffffffff1681526020018a73ffffffffffffffffffffffffffffffffffffffff1681526020018562ffffff1681526020013073ffffffffffffffffffffffffffffffffffffffff168152602001617530426104689190611222565b815260200183815260200160008152602001600073ffffffffffffffffffffffffffffffffffffffff168152509050600460009054906101000a900473ffffffffffffffffffffffffffffffffffffffff1673ffffffffffffffffffffffffffffffffffffffff1663414bf389826040518263ffffffff1660e01b81526004016104f29190611334565b6020604051808303816000875af192505050801561052e57506040513d601f19601f8201168201806040525081019061052b9190611138565b60015b610570577fa44aaf67db77915b69a8df87c3b384b874d389b5e297ce7df5cdd2dc61a3c194868860405161056392919061135f565b60405180910390a161057d565b8095505050505050610582565b505050505b95945050505050565b600160009054906101000a900473ffffffffffffffffffffffffffffffffffffffff1673ffffffffffffffffffffffffffffffffffffffff163373ffffffffffffffffffffffffffffffffffffffff16146105e557600080fd5b6000829050818173ffffffffffffffffffffffffffffffffffffffff166370a08231306040518263ffffffff1660e01b81526004016106249190610b33565b602060405180830381865afa158015610641573d6000803e3d6000fd5b505050506040513d601f19601f820116820180604052508101906106659190611138565b1161066f57600080fd5b8073ffffffffffffffffffffffffffffffffffffffff166323b872dd30600160009054906101000a900473ffffffffffffffffffffffffffffffffffffffff16856040518463ffffffff1660e01b81526004016106ce9392919061138f565b6020604051808303816000875af11580156106ed573d6000803e3d6000fd5b505050506040513d601f19601f8201168201806040525081019061071191906111c6565b50505050565b60008054610724906113f5565b80601f0160208091040260200160405190810160405280929190818152602001828054610750906113f5565b801561079d5780601f106107725761010080835404028352916020019161079d565b820191906000526020600020905b81548152906001019060200180831161078057829003601f168201915b505050505081565b60028180516020810182018051848252602083016020850120818352809550505050505060009150905080546107da906113f5565b80601f0160208091040260200160405190810160405280929190818152602001828054610806906113f5565b80156108535780601f1061082857610100808354040283529160200191610853565b820191906000526020600020905b81548152906001019060200180831161083657829003601f168201915b505050505081565b600360009054906101000a900473ffffffffffffffffffffffffffffffffffffffff1681565b6060600086116108c6576040517f08c379a00000000000000000000000000000000000000000000000000000000081526004016108bd90611472565b60405180910390fd5b6000828060200190518101906108dc9190611502565b90506000610bb89050600360009054906101000a900473ffffffffffffffffffffffffffffffffffffffff1673ffffffffffffffffffffffffffffffffffffffff168773ffffffffffffffffffffffffffffffffffffffff16146109c557600061096b88600360009054906101000a900473ffffffffffffffffffffffffffffffffffffffff1684868e6102c1565b90508260405161097b9190611587565b60405180910390207e60698de6efe92aee246242a18ba6b13667729e505c416592694fe97f4ba2af888a848e6040516109b7949392919061159e565b60405180910390a250610a18565b816040516109d39190611587565b60405180910390207e60698de6efe92aee246242a18ba6b13667729e505c416592694fe97f4ba2af87898b8d604051610a0f949392919061159e565b60405180910390a25b6040518060400160405280600981526020017f436f6d706c657465640000000000000000000000000000000000000000000000815250600283604051610a5e9190611587565b90815260200160405180910390209081610a78919061178f565b5050509695505050505050565b6000604051905090565b600080fd5b600080fd5b600073ffffffffffffffffffffffffffffffffffffffff82169050919050565b6000610ac482610a99565b9050919050565b610ad481610ab9565b8114610adf57600080fd5b50565b600081359050610af181610acb565b92915050565b600060208284031215610b0d57610b0c610a8f565b5b6000610b1b84828501610ae2565b91505092915050565b610b2d81610ab9565b82525050565b6000602082019050610b486000830184610b24565b92915050565b600062ffffff82169050919050565b610b6681610b4e565b8114610b7157600080fd5b50565b600081359050610b8381610b5d565b92915050565b600080fd5b600080fd5b6000601f19601f8301169050919050565b7f4e487b7100000000000000000000000000000000000000000000000000000000600052604160045260246000fd5b610bdc82610b93565b810181811067ffffffffffffffff82111715610bfb57610bfa610ba4565b5b80604052505050565b6000610c0e610a85565b9050610c1a8282610bd3565b919050565b600067ffffffffffffffff821115610c3a57610c39610ba4565b5b610c4382610b93565b9050602081019050919050565b82818337600083830152505050565b6000610c72610c6d84610c1f565b610c04565b905082815260208101848484011115610c8e57610c8d610b8e565b5b610c99848285610c50565b509392505050565b600082601f830112610cb657610cb5610b89565b5b8135610cc6848260208601610c5f565b91505092915050565b6000819050919050565b610ce281610ccf565b8114610ced57600080fd5b50565b600081359050610cff81610cd9565b92915050565b600080600080600060a08688031215610d2157610d20610a8f565b5b6000610d2f88828901610ae2565b9550506020610d4088828901610ae2565b9450506040610d5188828901610b74565b935050606086013567ffffffffffffffff811115610d7257610d71610a94565b5b610d7e88828901610ca1565b9250506080610d8f88828901610cf0565b9150509295509295909350565b6000819050919050565b610daf81610d9c565b82525050565b6000602082019050610dca6000830184610da6565b92915050565b610dd981610d9c565b8114610de457600080fd5b50565b600081359050610df681610dd0565b92915050565b60008060408385031215610e1357610e12610a8f565b5b6000610e2185828601610ae2565b9250506020610e3285828601610de7565b9150509250929050565b600081519050919050565b600082825260208201905092915050565b60005b83811015610e76578082015181840152602081019050610e5b565b60008484015250505050565b6000610e8d82610e3c565b610e978185610e47565b9350610ea7818560208601610e58565b610eb081610b93565b840191505092915050565b60006020820190508181036000830152610ed58184610e82565b905092915050565b600060208284031215610ef357610ef2610a8f565b5b600082013567ffffffffffffffff811115610f1157610f10610a94565b5b610f1d84828501610ca1565b91505092915050565b600063ffffffff82169050919050565b610f3f81610f26565b8114610f4a57600080fd5b50565b600081359050610f5c81610f36565b92915050565b600067ffffffffffffffff821115610f7d57610f7c610ba4565b5b610f8682610b93565b9050602081019050919050565b6000610fa6610fa184610f62565b610c04565b905082815260208101848484011115610fc257610fc1610b8e565b5b610fcd848285610c50565b509392505050565b600082601f830112610fea57610fe9610b89565b5b8135610ffa848260208601610f93565b91505092915050565b60008060008060008060c087890312156110205761101f610a8f565b5b600061102e89828a01610cf0565b965050602061103f89828a01610de7565b955050604061105089828a01610ae2565b945050606061106189828a01610ae2565b935050608061107289828a01610f4d565b92505060a087013567ffffffffffffffff81111561109357611092610a94565b5b61109f89828a01610fd5565b9150509295509295509295565b600081519050919050565b600082825260208201905092915050565b60006110d3826110ac565b6110dd81856110b7565b93506110ed818560208601610e58565b6110f681610b93565b840191505092915050565b6000602082019050818103600083015261111b81846110c8565b905092915050565b60008151905061113281610dd0565b92915050565b60006020828403121561114e5761114d610a8f565b5b600061115c84828501611123565b91505092915050565b600060408201905061117a6000830185610b24565b6111876020830184610da6565b9392505050565b60008115159050919050565b6111a38161118e565b81146111ae57600080fd5b50565b6000815190506111c08161119a565b92915050565b6000602082840312156111dc576111db610a8f565b5b60006111ea848285016111b1565b91505092915050565b7f4e487b7100000000000000000000000000000000000000000000000000000000600052601160045260246000fd5b600061122d82610d9c565b915061123883610d9c565b92508282019050808211156112505761124f6111f3565b5b92915050565b61125f81610ab9565b82525050565b61126e81610b4e565b82525050565b61127d81610d9c565b82525050565b61128c81610a99565b82525050565b610100820160008201516112a96000850182611256565b5060208201516112bc6020850182611256565b5060408201516112cf6040850182611265565b5060608201516112e26060850182611256565b5060808201516112f56080850182611274565b5060a082015161130860a0850182611274565b5060c082015161131b60c0850182611274565b5060e082015161132e60e0850182611283565b50505050565b60006101008201905061134a6000830184611292565b92915050565b61135981610ccf565b82525050565b60006040820190506113746000830185611350565b81810360208301526113868184610e82565b90509392505050565b60006060820190506113a46000830186610b24565b6113b16020830185610b24565b6113be6040830184610da6565b949350505050565b7f4e487b7100000000000000000000000000000000000000000000000000000000600052602260045260246000fd5b6000600282049050600182168061140d57607f821691505b6020821081036114205761141f6113c6565b5b50919050565b7f4d75737420706179206174206c65617374203120776569000000000000000000600082015250565b600061145c601783610e47565b915061146782611426565b602082019050919050565b6000602082019050818103600083015261148b8161144f565b9050919050565b60006114a56114a084610c1f565b610c04565b9050828152602081018484840111156114c1576114c0610b8e565b5b6114cc848285610e58565b509392505050565b600082601f8301126114e9576114e8610b89565b5b81516114f9848260208601611492565b91505092915050565b60006020828403121561151857611517610a8f565b5b600082015167ffffffffffffffff81111561153657611535610a94565b5b611542848285016114d4565b91505092915050565b600081905092915050565b600061156182610e3c565b61156b818561154b565b935061157b818560208601610e58565b80840191505092915050565b60006115938284611556565b915081905092915050565b60006080820190506115b36000830187610b24565b6115c06020830186610b24565b6115cd6040830185610da6565b6115da6060830184611350565b95945050505050565b60008190508160005260206000209050919050565b60006020601f8301049050919050565b600082821b905092915050565b6000600883026116457fffffffffffffffffffffffffffffffffffffffffffffffffffffffffffffffff82611608565b61164f8683611608565b95508019841693508086168417925050509392505050565b6000819050919050565b600061168c61168761168284610d9c565b611667565b610d9c565b9050919050565b6000819050919050565b6116a683611671565b6116ba6116b282611693565b848454611615565b825550505050565b600090565b6116cf6116c2565b6116da81848461169d565b505050565b5b818110156116fe576116f36000826116c7565b6001810190506116e0565b5050565b601f82111561174357611714816115e3565b61171d846115f8565b8101602085101561172c578190505b611740611738856115f8565b8301826116df565b50505b505050565b600082821c905092915050565b600061176660001984600802611748565b1980831691505092915050565b600061177f8383611755565b9150826002028217905092915050565b61179882610e3c565b67ffffffffffffffff8111156117b1576117b0610ba4565b5b6117bb82546113f5565b6117c6828285611702565b600060209050601f8311600181146117f957600084156117e7578287015190505b6117f18582611773565b865550611859565b601f198416611807866115e3565b60005b8281101561182f5784890151825560018201915060208501945060208101905061180a565b8683101561184c5784890151611848601f891682611755565b8355505b6001600288020188555050505b50505050505056fea26469706673582212208ab2563370f709be19644aba6234dbaafec59f789a7ae485cdd626526fc04d7964736f6c63430008150033",
  "linkReferences": {},
  "deployedLinkReferences": {}
}