{
  "_format": "hh-sol-artifact-1",
  "contractName": "DestinationGreeter",
  "sourceName": "contracts/DestinationGreeter.sol",
  "abi": [
    {
      "inputs": [
        {
          "internalType": "address",
          "name": "_token",
          "type": "address"
        },
        {
          "internalType": "contract ISwapRouter",
          "name": "_swapRouter",
          "type": "address"
        }
      ],
      "stateMutability": "nonpayable",
      "type": "constructor"
    },
    {
      "inputs": [],
      "name": "amountOut",
      "outputs": [
        {
          "internalType": "uint256",
          "name": "",
          "type": "uint256"
        }
      ],
      "stateMutability": "view",
      "type": "function"
    },
    {
      "inputs": [],
      "name": "greeting",
      "outputs": [
        {
          "internalType": "string",
          "name": "",
          "type": "string"
        }
      ],
      "stateMutability": "view",
      "type": "function"
    },
    {
      "inputs": [],
      "name": "owner",
      "outputs": [
        {
          "internalType": "address",
          "name": "",
          "type": "address"
        }
      ],
      "stateMutability": "view",
      "type": "function"
    },
    {
      "inputs": [
        {
          "internalType": "address",
          "name": "tokenIn",
          "type": "address"
        },
        {
          "internalType": "address",
          "name": "tokenOut",
          "type": "address"
        },
        {
          "internalType": "uint24",
          "name": "fee",
          "type": "uint24"
        }
      ],
      "name": "swap",
      "outputs": [
        {
          "internalType": "uint256",
          "name": "amountOut",
          "type": "uint256"
        }
      ],
      "stateMutability": "payable",
      "type": "function"
    },
    {
      "inputs": [],
      "name": "token",
      "outputs": [
        {
          "internalType": "contract IERC20",
          "name": "",
          "type": "address"
        }
      ],
      "stateMutability": "view",
      "type": "function"
    },
    {
      "inputs": [],
      "name": "tokenOut",
      "outputs": [
        {
          "internalType": "address",
          "name": "",
          "type": "address"
        }
      ],
      "stateMutability": "view",
      "type": "function"
    },
    {
      "inputs": [
        {
          "internalType": "bytes32",
          "name": "_transferId",
          "type": "bytes32"
        },
        {
          "internalType": "uint256",
          "name": "_amount",
          "type": "uint256"
        },
        {
          "internalType": "address",
          "name": "_asset",
          "type": "address"
        },
        {
          "internalType": "address",
          "name": "_originSender",
          "type": "address"
        },
        {
          "internalType": "uint32",
          "name": "_origin",
          "type": "uint32"
        },
        {
          "internalType": "bytes",
          "name": "_callData",
          "type": "bytes"
        }
      ],
      "name": "xReceive",
      "outputs": [
        {
          "internalType": "bytes",
          "name": "",
          "type": "bytes"
        }
      ],
      "stateMutability": "nonpayable",
      "type": "function"
    }
  ],
  "bytecode": "0x60a06040523480156200001157600080fd5b5060405162001222380380620012228339818101604052810190620000379190620001a4565b80600460006101000a81548173ffffffffffffffffffffffffffffffffffffffff021916908373ffffffffffffffffffffffffffffffffffffffff1602179055508173ffffffffffffffffffffffffffffffffffffffff1660808173ffffffffffffffffffffffffffffffffffffffff168152505033600160006101000a81548173ffffffffffffffffffffffffffffffffffffffff021916908373ffffffffffffffffffffffffffffffffffffffff1602179055505050620001eb565b600080fd5b600073ffffffffffffffffffffffffffffffffffffffff82169050919050565b60006200012782620000fa565b9050919050565b62000139816200011a565b81146200014557600080fd5b50565b60008151905062000159816200012e565b92915050565b60006200016c826200011a565b9050919050565b6200017e816200015f565b81146200018a57600080fd5b50565b6000815190506200019e8162000173565b92915050565b60008060408385031215620001be57620001bd620000f5565b5b6000620001ce8582860162000148565b9250506020620001e1858286016200018d565b9150509250929050565b6080516110146200020e60003960008181610519015261053f01526110146000f3fe6080604052600436106100705760003560e01c8063d0202d3b1161004e578063d0202d3b146100fb578063ef690cc014610126578063fc0c546a14610151578063fd614f411461017c57610070565b806346ee8d00146100755780637c0add3b146100a05780638da5cb5b146100d0575b600080fd5b34801561008157600080fd5b5061008a6101b9565b60405161009791906106aa565b60405180910390f35b6100ba60048036038101906100b59190610772565b6101bf565b6040516100c791906106aa565b60405180910390f35b3480156100dc57600080fd5b506100e561043d565b6040516100f291906107d4565b60405180910390f35b34801561010757600080fd5b50610110610463565b60405161011d91906107d4565b60405180910390f35b34801561013257600080fd5b5061013b610489565b604051610148919061087f565b60405180910390f35b34801561015d57600080fd5b50610166610517565b6040516101739190610900565b60405180910390f35b34801561018857600080fd5b506101a3600480360381019061019e9190610aee565b61053b565b6040516101b09190610bec565b60405180910390f35b60035481565b6000808290506000808691508173ffffffffffffffffffffffffffffffffffffffff166370a08231306040518263ffffffff1660e01b815260040161020491906107d4565b602060405180830381865afa158015610221573d6000803e3d6000fd5b505050506040513d601f19601f820116820180604052508101906102459190610c23565b90508173ffffffffffffffffffffffffffffffffffffffff1663095ea7b3600460009054906101000a900473ffffffffffffffffffffffffffffffffffffffff16836040518363ffffffff1660e01b81526004016102a4929190610c50565b6020604051808303816000875af11580156102c3573d6000803e3d6000fd5b505050506040513d601f19601f820116820180604052508101906102e79190610cb1565b5060006040518061010001604052808973ffffffffffffffffffffffffffffffffffffffff1681526020018873ffffffffffffffffffffffffffffffffffffffff1681526020018562ffffff1681526020013073ffffffffffffffffffffffffffffffffffffffff168152602001617530426103639190610d0d565b815260200183815260200160008152602001600073ffffffffffffffffffffffffffffffffffffffff168152509050600460009054906101000a900473ffffffffffffffffffffffffffffffffffffffff1673ffffffffffffffffffffffffffffffffffffffff1663414bf389826040518263ffffffff1660e01b81526004016103ed9190610e1f565b6020604051808303816000875af115801561040c573d6000803e3d6000fd5b505050506040513d601f19601f820116820180604052508101906104309190610c23565b9450505050509392505050565b600160009054906101000a900473ffffffffffffffffffffffffffffffffffffffff1681565b600260009054906101000a900473ffffffffffffffffffffffffffffffffffffffff1681565b6000805461049690610e6a565b80601f01602080910402602001604051908101604052809291908181526020018280546104c290610e6a565b801561050f5780601f106104e45761010080835404028352916020019161050f565b820191906000526020600020905b8154815290600101906020018083116104f257829003601f168201915b505050505081565b7f000000000000000000000000000000000000000000000000000000000000000081565b60607f000000000000000000000000000000000000000000000000000000000000000073ffffffffffffffffffffffffffffffffffffffff168573ffffffffffffffffffffffffffffffffffffffff16146105cb576040517f08c379a00000000000000000000000000000000000000000000000000000000081526004016105c290610ee7565b60405180910390fd5b6000861161060e576040517f08c379a000000000000000000000000000000000000000000000000000000000815260040161060590610f53565b60405180910390fd5b6000828060200190518101906106249190610fb1565b905080600260006101000a81548173ffffffffffffffffffffffffffffffffffffffff021916908373ffffffffffffffffffffffffffffffffffffffff1602179055506000610bb89050600061067b8884846101bf565b9050806003819055505050509695505050505050565b6000819050919050565b6106a481610691565b82525050565b60006020820190506106bf600083018461069b565b92915050565b6000604051905090565b600080fd5b600080fd5b600073ffffffffffffffffffffffffffffffffffffffff82169050919050565b6000610704826106d9565b9050919050565b610714816106f9565b811461071f57600080fd5b50565b6000813590506107318161070b565b92915050565b600062ffffff82169050919050565b61074f81610737565b811461075a57600080fd5b50565b60008135905061076c81610746565b92915050565b60008060006060848603121561078b5761078a6106cf565b5b600061079986828701610722565b93505060206107aa86828701610722565b92505060406107bb8682870161075d565b9150509250925092565b6107ce816106f9565b82525050565b60006020820190506107e960008301846107c5565b92915050565b600081519050919050565b600082825260208201905092915050565b60005b8381101561082957808201518184015260208101905061080e565b60008484015250505050565b6000601f19601f8301169050919050565b6000610851826107ef565b61085b81856107fa565b935061086b81856020860161080b565b61087481610835565b840191505092915050565b600060208201905081810360008301526108998184610846565b905092915050565b6000819050919050565b60006108c66108c16108bc846106d9565b6108a1565b6106d9565b9050919050565b60006108d8826108ab565b9050919050565b60006108ea826108cd565b9050919050565b6108fa816108df565b82525050565b600060208201905061091560008301846108f1565b92915050565b6000819050919050565b61092e8161091b565b811461093957600080fd5b50565b60008135905061094b81610925565b92915050565b61095a81610691565b811461096557600080fd5b50565b60008135905061097781610951565b92915050565b600063ffffffff82169050919050565b6109968161097d565b81146109a157600080fd5b50565b6000813590506109b38161098d565b92915050565b600080fd5b600080fd5b7f4e487b7100000000000000000000000000000000000000000000000000000000600052604160045260246000fd5b6109fb82610835565b810181811067ffffffffffffffff82111715610a1a57610a196109c3565b5b80604052505050565b6000610a2d6106c5565b9050610a3982826109f2565b919050565b600067ffffffffffffffff821115610a5957610a586109c3565b5b610a6282610835565b9050602081019050919050565b82818337600083830152505050565b6000610a91610a8c84610a3e565b610a23565b905082815260208101848484011115610aad57610aac6109be565b5b610ab8848285610a6f565b509392505050565b600082601f830112610ad557610ad46109b9565b5b8135610ae5848260208601610a7e565b91505092915050565b60008060008060008060c08789031215610b0b57610b0a6106cf565b5b6000610b1989828a0161093c565b9650506020610b2a89828a01610968565b9550506040610b3b89828a01610722565b9450506060610b4c89828a01610722565b9350506080610b5d89828a016109a4565b92505060a087013567ffffffffffffffff811115610b7e57610b7d6106d4565b5b610b8a89828a01610ac0565b9150509295509295509295565b600081519050919050565b600082825260208201905092915050565b6000610bbe82610b97565b610bc88185610ba2565b9350610bd881856020860161080b565b610be181610835565b840191505092915050565b60006020820190508181036000830152610c068184610bb3565b905092915050565b600081519050610c1d81610951565b92915050565b600060208284031215610c3957610c386106cf565b5b6000610c4784828501610c0e565b91505092915050565b6000604082019050610c6560008301856107c5565b610c72602083018461069b565b9392505050565b60008115159050919050565b610c8e81610c79565b8114610c9957600080fd5b50565b600081519050610cab81610c85565b92915050565b600060208284031215610cc757610cc66106cf565b5b6000610cd584828501610c9c565b91505092915050565b7f4e487b7100000000000000000000000000000000000000000000000000000000600052601160045260246000fd5b6000610d1882610691565b9150610d2383610691565b9250828201905080821115610d3b57610d3a610cde565b5b92915050565b610d4a816106f9565b82525050565b610d5981610737565b82525050565b610d6881610691565b82525050565b610d77816106d9565b82525050565b61010082016000820151610d946000850182610d41565b506020820151610da76020850182610d41565b506040820151610dba6040850182610d50565b506060820151610dcd6060850182610d41565b506080820151610de06080850182610d5f565b5060a0820151610df360a0850182610d5f565b5060c0820151610e0660c0850182610d5f565b5060e0820151610e1960e0850182610d6e565b50505050565b600061010082019050610e356000830184610d7d565b92915050565b7f4e487b7100000000000000000000000000000000000000000000000000000000600052602260045260246000fd5b60006002820490506001821680610e8257607f821691505b602082108103610e9557610e94610e3b565b5b50919050565b7f57726f6e67206173736574207265636569766564000000000000000000000000600082015250565b6000610ed16014836107fa565b9150610edc82610e9b565b602082019050919050565b60006020820190508181036000830152610f0081610ec4565b9050919050565b7f4d75737420706179206174206c65617374203120776569000000000000000000600082015250565b6000610f3d6017836107fa565b9150610f4882610f07565b602082019050919050565b60006020820190508181036000830152610f6c81610f30565b9050919050565b6000610f7e826106d9565b9050919050565b610f8e81610f73565b8114610f9957600080fd5b50565b600081519050610fab81610f85565b92915050565b600060208284031215610fc757610fc66106cf565b5b6000610fd584828501610f9c565b9150509291505056fea26469706673582212209b9e882feb15db788ddf793cc9c13ba7c37c90e8d3e83eed4c4326c951ee92e564736f6c63430008150033",
  "linkReferences": {},
  "deployedLinkReferences": {}
}