{
  "_format": "hh-sol-artifact-1",
  "contractName": "DestinationGreeter",
  "sourceName": "contracts/DestinationGreeter.sol",
  "abi": [
    {
      "inputs": [
        {
          "internalType": "address",
          "name": "_token",
          "type": "address"
        },
        {
          "internalType": "contract ISwapRouter",
          "name": "_swapRouter",
          "type": "address"
        }
      ],
      "stateMutability": "nonpayable",
      "type": "constructor"
    },
    {
      "anonymous": false,
      "inputs": [
        {
          "indexed": false,
          "internalType": "bytes32",
          "name": "transferId",
          "type": "bytes32"
        },
        {
          "indexed": false,
          "internalType": "string",
          "name": "txId",
          "type": "string"
        }
      ],
      "name": "SwapFailed",
      "type": "event"
    },
    {
      "anonymous": false,
      "inputs": [
        {
          "indexed": true,
          "internalType": "string",
          "name": "txId",
          "type": "string"
        },
        {
          "indexed": false,
          "internalType": "address",
          "name": "from",
          "type": "address"
        },
        {
          "indexed": false,
          "internalType": "address",
          "name": "_token",
          "type": "address"
        },
        {
          "indexed": false,
          "internalType": "uint256",
          "name": "amount",
          "type": "uint256"
        },
        {
          "indexed": false,
          "internalType": "bytes32",
          "name": "transferId",
          "type": "bytes32"
        }
      ],
      "name": "TransferCompleted",
      "type": "event"
    },
    {
      "inputs": [],
      "name": "amountOut",
      "outputs": [
        {
          "internalType": "uint256",
          "name": "",
          "type": "uint256"
        }
      ],
      "stateMutability": "view",
      "type": "function"
    },
    {
      "inputs": [],
      "name": "greeting",
      "outputs": [
        {
          "internalType": "string",
          "name": "",
          "type": "string"
        }
      ],
      "stateMutability": "view",
      "type": "function"
    },
    {
      "inputs": [],
      "name": "owner",
      "outputs": [
        {
          "internalType": "address",
          "name": "",
          "type": "address"
        }
      ],
      "stateMutability": "view",
      "type": "function"
    },
    {
      "inputs": [
        {
          "internalType": "address",
          "name": "tokenIn",
          "type": "address"
        },
        {
          "internalType": "address",
          "name": "tokenOut",
          "type": "address"
        },
        {
          "internalType": "uint24",
          "name": "fee",
          "type": "uint24"
        },
        {
          "internalType": "string",
          "name": "txId",
          "type": "string"
        },
        {
          "internalType": "bytes32",
          "name": "transferId",
          "type": "bytes32"
        }
      ],
      "name": "swap",
      "outputs": [
        {
          "internalType": "uint256",
          "name": "amountOut",
          "type": "uint256"
        }
      ],
      "stateMutability": "payable",
      "type": "function"
    },
    {
      "inputs": [],
      "name": "token",
      "outputs": [
        {
          "internalType": "contract IERC20",
          "name": "",
          "type": "address"
        }
      ],
      "stateMutability": "view",
      "type": "function"
    },
    {
      "inputs": [],
      "name": "tokenOut",
      "outputs": [
        {
          "internalType": "address",
          "name": "",
          "type": "address"
        }
      ],
      "stateMutability": "view",
      "type": "function"
    },
    {
      "inputs": [
        {
          "internalType": "string",
          "name": "",
          "type": "string"
        }
      ],
      "name": "txStatus",
      "outputs": [
        {
          "internalType": "string",
          "name": "",
          "type": "string"
        }
      ],
      "stateMutability": "view",
      "type": "function"
    },
    {
      "inputs": [
        {
          "internalType": "address",
          "name": "_token",
          "type": "address"
        }
      ],
      "name": "updateToken",
      "outputs": [],
      "stateMutability": "nonpayable",
      "type": "function"
    },
    {
      "inputs": [
        {
          "internalType": "bytes32",
          "name": "_transferId",
          "type": "bytes32"
        },
        {
          "internalType": "uint256",
          "name": "_amount",
          "type": "uint256"
        },
        {
          "internalType": "address",
          "name": "_asset",
          "type": "address"
        },
        {
          "internalType": "address",
          "name": "_originSender",
          "type": "address"
        },
        {
          "internalType": "uint32",
          "name": "_origin",
          "type": "uint32"
        },
        {
          "internalType": "bytes",
          "name": "_callData",
          "type": "bytes"
        }
      ],
      "name": "xReceive",
      "outputs": [
        {
          "internalType": "bytes",
          "name": "",
          "type": "bytes"
        }
      ],
      "stateMutability": "nonpayable",
      "type": "function"
    }
  ],
  "bytecode": "0x60806040523480156200001157600080fd5b5060405162001ab038038062001ab08339818101604052810190620000379190620001b1565b80600660006101000a81548173ffffffffffffffffffffffffffffffffffffffff021916908373ffffffffffffffffffffffffffffffffffffffff16021790555081600560006101000a81548173ffffffffffffffffffffffffffffffffffffffff021916908373ffffffffffffffffffffffffffffffffffffffff16021790555033600160006101000a81548173ffffffffffffffffffffffffffffffffffffffff021916908373ffffffffffffffffffffffffffffffffffffffff1602179055505050620001f8565b600080fd5b600073ffffffffffffffffffffffffffffffffffffffff82169050919050565b6000620001348262000107565b9050919050565b620001468162000127565b81146200015257600080fd5b50565b60008151905062000166816200013b565b92915050565b6000620001798262000127565b9050919050565b6200018b816200016c565b81146200019757600080fd5b50565b600081519050620001ab8162000180565b92915050565b60008060408385031215620001cb57620001ca62000102565b5b6000620001db8582860162000155565b9250506020620001ee858286016200019a565b9150509250929050565b6118a880620002086000396000f3fe6080604052600436106100865760003560e01c8063d0202d3b11610059578063d0202d3b1461013a578063ef690cc014610165578063f023531214610190578063fc0c546a146101cd578063fd614f41146101f857610086565b806346ee8d001461008b5780637ad3def2146100b65780638da5cb5b146100df578063963571451461010a575b600080fd5b34801561009757600080fd5b506100a0610235565b6040516100ad91906109f9565b60405180910390f35b3480156100c257600080fd5b506100dd60048036038101906100d89190610a86565b61023b565b005b3480156100eb57600080fd5b506100f46102d9565b6040516101019190610ac2565b60405180910390f35b610124600480360381019061011f9190610c94565b6102ff565b60405161013191906109f9565b60405180910390f35b34801561014657600080fd5b5061014f6105c0565b60405161015c9190610ac2565b60405180910390f35b34801561017157600080fd5b5061017a6105e6565b6040516101879190610daa565b60405180910390f35b34801561019c57600080fd5b506101b760048036038101906101b29190610dcc565b610674565b6040516101c49190610daa565b60405180910390f35b3480156101d957600080fd5b506101e261072a565b6040516101ef9190610e74565b60405180910390f35b34801561020457600080fd5b5061021f600480360381019061021a9190610f98565b610750565b60405161022c9190611096565b60405180910390f35b60035481565b600160009054906101000a900473ffffffffffffffffffffffffffffffffffffffff1673ffffffffffffffffffffffffffffffffffffffff163373ffffffffffffffffffffffffffffffffffffffff161461029557600080fd5b80600560006101000a81548173ffffffffffffffffffffffffffffffffffffffff021916908373ffffffffffffffffffffffffffffffffffffffff16021790555050565b600160009054906101000a900473ffffffffffffffffffffffffffffffffffffffff1681565b60008084905060008060008992508273ffffffffffffffffffffffffffffffffffffffff166370a08231306040518263ffffffff1660e01b81526004016103469190610ac2565b602060405180830381865afa158015610363573d6000803e3d6000fd5b505050506040513d601f19601f8201168201806040525081019061038791906110cd565b91508273ffffffffffffffffffffffffffffffffffffffff1663095ea7b3600660009054906101000a900473ffffffffffffffffffffffffffffffffffffffff16846040518363ffffffff1660e01b81526004016103e69291906110fa565b6020604051808303816000875af1158015610405573d6000803e3d6000fd5b505050506040513d601f19601f82011682018060405250810190610429919061115b565b5060006040518061010001604052808c73ffffffffffffffffffffffffffffffffffffffff1681526020018b73ffffffffffffffffffffffffffffffffffffffff1681526020018662ffffff1681526020013073ffffffffffffffffffffffffffffffffffffffff168152602001617530426104a591906111b7565b815260200184815260200160008152602001600073ffffffffffffffffffffffffffffffffffffffff168152509050600660009054906101000a900473ffffffffffffffffffffffffffffffffffffffff1673ffffffffffffffffffffffffffffffffffffffff1663414bf389826040518263ffffffff1660e01b815260040161052f91906112c9565b6020604051808303816000875af192505050801561056b57506040513d601f19601f8201168201806040525081019061056891906110cd565b60015b6105ad577fa44aaf67db77915b69a8df87c3b384b874d389b5e297ce7df5cdd2dc61a3c19487896040516105a09291906112f4565b60405180910390a16105b2565b809250505b505050505095945050505050565b600260009054906101000a900473ffffffffffffffffffffffffffffffffffffffff1681565b600080546105f390611353565b80601f016020809104026020016040519081016040528092919081815260200182805461061f90611353565b801561066c5780601f106106415761010080835404028352916020019161066c565b820191906000526020600020905b81548152906001019060200180831161064f57829003601f168201915b505050505081565b60048180516020810182018051848252602083016020850120818352809550505050505060009150905080546106a990611353565b80601f01602080910402602001604051908101604052809291908181526020018280546106d590611353565b80156107225780601f106106f757610100808354040283529160200191610722565b820191906000526020600020905b81548152906001019060200180831161070557829003601f168201915b505050505081565b600560009054906101000a900473ffffffffffffffffffffffffffffffffffffffff1681565b6060600560009054906101000a900473ffffffffffffffffffffffffffffffffffffffff1673ffffffffffffffffffffffffffffffffffffffff168573ffffffffffffffffffffffffffffffffffffffff16146107e2576040517f08c379a00000000000000000000000000000000000000000000000000000000081526004016107d9906113d0565b60405180910390fd5b60008611610825576040517f08c379a000000000000000000000000000000000000000000000000000000000815260040161081c9061143c565b60405180910390fd5b6000808380602001905181019061083c919061150a565b9150915081600260006101000a81548173ffffffffffffffffffffffffffffffffffffffff021916908373ffffffffffffffffffffffffffffffffffffffff1602179055506000610bb890508273ffffffffffffffffffffffffffffffffffffffff168873ffffffffffffffffffffffffffffffffffffffff16036109205760006108ca898584868f6102ff565b9050826040516108da91906115a2565b60405180910390207e60698de6efe92aee246242a18ba6b13667729e505c416592694fe97f4ba2af898b848f60405161091694939291906115b9565b60405180910390a2505b8160405161092e91906115a2565b60405180910390207e60698de6efe92aee246242a18ba6b13667729e505c416592694fe97f4ba2af888a8c8e60405161096a94939291906115b9565b60405180910390a26040518060400160405280600981526020017f436f6d706c6574656400000000000000000000000000000000000000000000008152506004836040516109b891906115a2565b908152602001604051809103902090816109d291906117a0565b505050509695505050505050565b6000819050919050565b6109f3816109e0565b82525050565b6000602082019050610a0e60008301846109ea565b92915050565b6000604051905090565b600080fd5b600080fd5b600073ffffffffffffffffffffffffffffffffffffffff82169050919050565b6000610a5382610a28565b9050919050565b610a6381610a48565b8114610a6e57600080fd5b50565b600081359050610a8081610a5a565b92915050565b600060208284031215610a9c57610a9b610a1e565b5b6000610aaa84828501610a71565b91505092915050565b610abc81610a48565b82525050565b6000602082019050610ad76000830184610ab3565b92915050565b600062ffffff82169050919050565b610af581610add565b8114610b0057600080fd5b50565b600081359050610b1281610aec565b92915050565b600080fd5b600080fd5b6000601f19601f8301169050919050565b7f4e487b7100000000000000000000000000000000000000000000000000000000600052604160045260246000fd5b610b6b82610b22565b810181811067ffffffffffffffff82111715610b8a57610b89610b33565b5b80604052505050565b6000610b9d610a14565b9050610ba98282610b62565b919050565b600067ffffffffffffffff821115610bc957610bc8610b33565b5b610bd282610b22565b9050602081019050919050565b82818337600083830152505050565b6000610c01610bfc84610bae565b610b93565b905082815260208101848484011115610c1d57610c1c610b1d565b5b610c28848285610bdf565b509392505050565b600082601f830112610c4557610c44610b18565b5b8135610c55848260208601610bee565b91505092915050565b6000819050919050565b610c7181610c5e565b8114610c7c57600080fd5b50565b600081359050610c8e81610c68565b92915050565b600080600080600060a08688031215610cb057610caf610a1e565b5b6000610cbe88828901610a71565b9550506020610ccf88828901610a71565b9450506040610ce088828901610b03565b935050606086013567ffffffffffffffff811115610d0157610d00610a23565b5b610d0d88828901610c30565b9250506080610d1e88828901610c7f565b9150509295509295909350565b600081519050919050565b600082825260208201905092915050565b60005b83811015610d65578082015181840152602081019050610d4a565b60008484015250505050565b6000610d7c82610d2b565b610d868185610d36565b9350610d96818560208601610d47565b610d9f81610b22565b840191505092915050565b60006020820190508181036000830152610dc48184610d71565b905092915050565b600060208284031215610de257610de1610a1e565b5b600082013567ffffffffffffffff811115610e0057610dff610a23565b5b610e0c84828501610c30565b91505092915050565b6000819050919050565b6000610e3a610e35610e3084610a28565b610e15565b610a28565b9050919050565b6000610e4c82610e1f565b9050919050565b6000610e5e82610e41565b9050919050565b610e6e81610e53565b82525050565b6000602082019050610e896000830184610e65565b92915050565b610e98816109e0565b8114610ea357600080fd5b50565b600081359050610eb581610e8f565b92915050565b600063ffffffff82169050919050565b610ed481610ebb565b8114610edf57600080fd5b50565b600081359050610ef181610ecb565b92915050565b600067ffffffffffffffff821115610f1257610f11610b33565b5b610f1b82610b22565b9050602081019050919050565b6000610f3b610f3684610ef7565b610b93565b905082815260208101848484011115610f5757610f56610b1d565b5b610f62848285610bdf565b509392505050565b600082601f830112610f7f57610f7e610b18565b5b8135610f8f848260208601610f28565b91505092915050565b60008060008060008060c08789031215610fb557610fb4610a1e565b5b6000610fc389828a01610c7f565b9650506020610fd489828a01610ea6565b9550506040610fe589828a01610a71565b9450506060610ff689828a01610a71565b935050608061100789828a01610ee2565b92505060a087013567ffffffffffffffff81111561102857611027610a23565b5b61103489828a01610f6a565b9150509295509295509295565b600081519050919050565b600082825260208201905092915050565b600061106882611041565b611072818561104c565b9350611082818560208601610d47565b61108b81610b22565b840191505092915050565b600060208201905081810360008301526110b0818461105d565b905092915050565b6000815190506110c781610e8f565b92915050565b6000602082840312156110e3576110e2610a1e565b5b60006110f1848285016110b8565b91505092915050565b600060408201905061110f6000830185610ab3565b61111c60208301846109ea565b9392505050565b60008115159050919050565b61113881611123565b811461114357600080fd5b50565b6000815190506111558161112f565b92915050565b60006020828403121561117157611170610a1e565b5b600061117f84828501611146565b91505092915050565b7f4e487b7100000000000000000000000000000000000000000000000000000000600052601160045260246000fd5b60006111c2826109e0565b91506111cd836109e0565b92508282019050808211156111e5576111e4611188565b5b92915050565b6111f481610a48565b82525050565b61120381610add565b82525050565b611212816109e0565b82525050565b61122181610a28565b82525050565b6101008201600082015161123e60008501826111eb565b50602082015161125160208501826111eb565b50604082015161126460408501826111fa565b50606082015161127760608501826111eb565b50608082015161128a6080850182611209565b5060a082015161129d60a0850182611209565b5060c08201516112b060c0850182611209565b5060e08201516112c360e0850182611218565b50505050565b6000610100820190506112df6000830184611227565b92915050565b6112ee81610c5e565b82525050565b600060408201905061130960008301856112e5565b818103602083015261131b8184610d71565b90509392505050565b7f4e487b7100000000000000000000000000000000000000000000000000000000600052602260045260246000fd5b6000600282049050600182168061136b57607f821691505b60208210810361137e5761137d611324565b5b50919050565b7f57726f6e67206173736574207265636569766564000000000000000000000000600082015250565b60006113ba601483610d36565b91506113c582611384565b602082019050919050565b600060208201905081810360008301526113e9816113ad565b9050919050565b7f4d75737420706179206174206c65617374203120776569000000000000000000600082015250565b6000611426601783610d36565b9150611431826113f0565b602082019050919050565b6000602082019050818103600083015261145581611419565b9050919050565b600061146782610a28565b9050919050565b6114778161145c565b811461148257600080fd5b50565b6000815190506114948161146e565b92915050565b60006114ad6114a884610bae565b610b93565b9050828152602081018484840111156114c9576114c8610b1d565b5b6114d4848285610d47565b509392505050565b600082601f8301126114f1576114f0610b18565b5b815161150184826020860161149a565b91505092915050565b6000806040838503121561152157611520610a1e565b5b600061152f85828601611485565b925050602083015167ffffffffffffffff8111156115505761154f610a23565b5b61155c858286016114dc565b9150509250929050565b600081905092915050565b600061157c82610d2b565b6115868185611566565b9350611596818560208601610d47565b80840191505092915050565b60006115ae8284611571565b915081905092915050565b60006080820190506115ce6000830187610ab3565b6115db6020830186610ab3565b6115e860408301856109ea565b6115f560608301846112e5565b95945050505050565b60008190508160005260206000209050919050565b60006020601f8301049050919050565b600082821b905092915050565b6000600883026116607fffffffffffffffffffffffffffffffffffffffffffffffffffffffffffffffff82611623565b61166a8683611623565b95508019841693508086168417925050509392505050565b600061169d611698611693846109e0565b610e15565b6109e0565b9050919050565b6000819050919050565b6116b783611682565b6116cb6116c3826116a4565b848454611630565b825550505050565b600090565b6116e06116d3565b6116eb8184846116ae565b505050565b5b8181101561170f576117046000826116d8565b6001810190506116f1565b5050565b601f82111561175457611725816115fe565b61172e84611613565b8101602085101561173d578190505b61175161174985611613565b8301826116f0565b50505b505050565b600082821c905092915050565b600061177760001984600802611759565b1980831691505092915050565b60006117908383611766565b9150826002028217905092915050565b6117a982610d2b565b67ffffffffffffffff8111156117c2576117c1610b33565b5b6117cc8254611353565b6117d7828285611713565b600060209050601f83116001811461180a57600084156117f8578287015190505b6118028582611784565b86555061186a565b601f198416611818866115fe565b60005b828110156118405784890151825560018201915060208501945060208101905061181b565b8683101561185d5784890151611859601f891682611766565b8355505b6001600288020188555050505b50505050505056fea26469706673582212202a0e541e30723045731527636d62e6ce96fb33cb1a4126d50e9a3e779e29c7dc64736f6c63430008150033",
  "linkReferences": {},
  "deployedLinkReferences": {}
}