{
  "_format": "hh-sol-artifact-1",
  "contractName": "DestinationGreeter",
  "sourceName": "contracts/DestinationGreeter.sol",
  "abi": [
    {
      "inputs": [
        {
          "internalType": "address",
          "name": "_token",
          "type": "address"
        },
        {
          "internalType": "contract ISwapRouter",
          "name": "_swapRouter",
          "type": "address"
        }
      ],
      "stateMutability": "nonpayable",
      "type": "constructor"
    },
    {
      "anonymous": false,
      "inputs": [
        {
          "indexed": false,
          "internalType": "bytes32",
          "name": "transferId",
          "type": "bytes32"
        },
        {
          "indexed": false,
          "internalType": "string",
          "name": "txId",
          "type": "string"
        }
      ],
      "name": "SwapFailed",
      "type": "event"
    },
    {
      "anonymous": false,
      "inputs": [
        {
          "indexed": true,
          "internalType": "string",
          "name": "txId",
          "type": "string"
        },
        {
          "indexed": false,
          "internalType": "address",
          "name": "from",
          "type": "address"
        },
        {
          "indexed": false,
          "internalType": "address",
          "name": "_token",
          "type": "address"
        },
        {
          "indexed": false,
          "internalType": "uint256",
          "name": "amount",
          "type": "uint256"
        },
        {
          "indexed": false,
          "internalType": "bytes32",
          "name": "transferId",
          "type": "bytes32"
        }
      ],
      "name": "TransferCompleted",
      "type": "event"
    },
    {
      "inputs": [],
      "name": "amountOut",
      "outputs": [
        {
          "internalType": "uint256",
          "name": "",
          "type": "uint256"
        }
      ],
      "stateMutability": "view",
      "type": "function"
    },
    {
      "inputs": [],
      "name": "greeting",
      "outputs": [
        {
          "internalType": "string",
          "name": "",
          "type": "string"
        }
      ],
      "stateMutability": "view",
      "type": "function"
    },
    {
      "inputs": [],
      "name": "owner",
      "outputs": [
        {
          "internalType": "address",
          "name": "",
          "type": "address"
        }
      ],
      "stateMutability": "view",
      "type": "function"
    },
    {
      "inputs": [
        {
          "internalType": "address",
          "name": "tokenIn",
          "type": "address"
        },
        {
          "internalType": "address",
          "name": "tokenOut",
          "type": "address"
        },
        {
          "internalType": "uint24",
          "name": "fee",
          "type": "uint24"
        },
        {
          "internalType": "string",
          "name": "txId",
          "type": "string"
        },
        {
          "internalType": "bytes32",
          "name": "transferId",
          "type": "bytes32"
        }
      ],
      "name": "swap",
      "outputs": [
        {
          "internalType": "uint256",
          "name": "amountOut",
          "type": "uint256"
        }
      ],
      "stateMutability": "payable",
      "type": "function"
    },
    {
      "inputs": [],
      "name": "token",
      "outputs": [
        {
          "internalType": "contract IERC20",
          "name": "",
          "type": "address"
        }
      ],
      "stateMutability": "view",
      "type": "function"
    },
    {
      "inputs": [
        {
          "internalType": "string",
          "name": "",
          "type": "string"
        }
      ],
      "name": "txStatus",
      "outputs": [
        {
          "internalType": "string",
          "name": "",
          "type": "string"
        }
      ],
      "stateMutability": "view",
      "type": "function"
    },
    {
      "inputs": [
        {
          "internalType": "address",
          "name": "_token",
          "type": "address"
        }
      ],
      "name": "updateToken",
      "outputs": [],
      "stateMutability": "nonpayable",
      "type": "function"
    },
    {
      "inputs": [
        {
          "internalType": "address",
          "name": "_token",
          "type": "address"
        },
        {
          "internalType": "uint256",
          "name": "_amount",
          "type": "uint256"
        }
      ],
      "name": "withdrawToken",
      "outputs": [],
      "stateMutability": "nonpayable",
      "type": "function"
    },
    {
      "inputs": [
        {
          "internalType": "bytes32",
          "name": "_transferId",
          "type": "bytes32"
        },
        {
          "internalType": "uint256",
          "name": "_amount",
          "type": "uint256"
        },
        {
          "internalType": "address",
          "name": "_asset",
          "type": "address"
        },
        {
          "internalType": "address",
          "name": "_originSender",
          "type": "address"
        },
        {
          "internalType": "uint32",
          "name": "_origin",
          "type": "uint32"
        },
        {
          "internalType": "bytes",
          "name": "_callData",
          "type": "bytes"
        }
      ],
      "name": "xReceive",
      "outputs": [
        {
          "internalType": "bytes",
          "name": "",
          "type": "bytes"
        }
      ],
      "stateMutability": "nonpayable",
      "type": "function"
    }
  ],
  "bytecode": "0x60806040523480156200001157600080fd5b5060405162001c3938038062001c398339818101604052810190620000379190620001b1565b80600560006101000a81548173ffffffffffffffffffffffffffffffffffffffff021916908373ffffffffffffffffffffffffffffffffffffffff16021790555081600460006101000a81548173ffffffffffffffffffffffffffffffffffffffff021916908373ffffffffffffffffffffffffffffffffffffffff16021790555033600160006101000a81548173ffffffffffffffffffffffffffffffffffffffff021916908373ffffffffffffffffffffffffffffffffffffffff1602179055505050620001f8565b600080fd5b600073ffffffffffffffffffffffffffffffffffffffff82169050919050565b6000620001348262000107565b9050919050565b620001468162000127565b81146200015257600080fd5b50565b60008151905062000166816200013b565b92915050565b6000620001798262000127565b9050919050565b6200018b816200016c565b81146200019757600080fd5b50565b600081519050620001ab8162000180565b92915050565b60008060408385031215620001cb57620001ca62000102565b5b6000620001db8582860162000155565b9250506020620001ee858286016200019a565b9150509250929050565b611a3180620002086000396000f3fe6080604052600436106100865760003560e01c80639e281a98116100595780639e281a981461013a578063ef690cc014610163578063f02353121461018e578063fc0c546a146101cb578063fd614f41146101f657610086565b806346ee8d001461008b5780637ad3def2146100b65780638da5cb5b146100df578063963571451461010a575b600080fd5b34801561009757600080fd5b506100a0610233565b6040516100ad9190610b5c565b60405180910390f35b3480156100c257600080fd5b506100dd60048036038101906100d89190610be9565b610239565b005b3480156100eb57600080fd5b506100f46102d7565b6040516101019190610c25565b60405180910390f35b610124600480360381019061011f9190610df7565b6102fd565b6040516101319190610b5c565b60405180910390f35b34801561014657600080fd5b50610161600480360381019061015c9190610eba565b6105be565b005b34801561016f57600080fd5b5061017861074a565b6040516101859190610f79565b60405180910390f35b34801561019a57600080fd5b506101b560048036038101906101b09190610f9b565b6107d8565b6040516101c29190610f79565b60405180910390f35b3480156101d757600080fd5b506101e061088e565b6040516101ed9190611043565b60405180910390f35b34801561020257600080fd5b5061021d6004803603810190610218919061113b565b6108b4565b60405161022a9190611239565b60405180910390f35b60025481565b600160009054906101000a900473ffffffffffffffffffffffffffffffffffffffff1673ffffffffffffffffffffffffffffffffffffffff163373ffffffffffffffffffffffffffffffffffffffff161461029357600080fd5b80600460006101000a81548173ffffffffffffffffffffffffffffffffffffffff021916908373ffffffffffffffffffffffffffffffffffffffff16021790555050565b600160009054906101000a900473ffffffffffffffffffffffffffffffffffffffff1681565b60008084905060008060008992508273ffffffffffffffffffffffffffffffffffffffff166370a08231306040518263ffffffff1660e01b81526004016103449190610c25565b602060405180830381865afa158015610361573d6000803e3d6000fd5b505050506040513d601f19601f820116820180604052508101906103859190611270565b91508273ffffffffffffffffffffffffffffffffffffffff1663095ea7b3600560009054906101000a900473ffffffffffffffffffffffffffffffffffffffff16846040518363ffffffff1660e01b81526004016103e492919061129d565b6020604051808303816000875af1158015610403573d6000803e3d6000fd5b505050506040513d601f19601f8201168201806040525081019061042791906112fe565b5060006040518061010001604052808c73ffffffffffffffffffffffffffffffffffffffff1681526020018b73ffffffffffffffffffffffffffffffffffffffff1681526020018662ffffff1681526020013073ffffffffffffffffffffffffffffffffffffffff168152602001617530426104a3919061135a565b815260200184815260200160008152602001600073ffffffffffffffffffffffffffffffffffffffff168152509050600560009054906101000a900473ffffffffffffffffffffffffffffffffffffffff1673ffffffffffffffffffffffffffffffffffffffff1663414bf389826040518263ffffffff1660e01b815260040161052d919061146c565b6020604051808303816000875af192505050801561056957506040513d601f19601f820116820180604052508101906105669190611270565b60015b6105ab577fa44aaf67db77915b69a8df87c3b384b874d389b5e297ce7df5cdd2dc61a3c194878960405161059e929190611497565b60405180910390a16105b0565b809250505b505050505095945050505050565b600160009054906101000a900473ffffffffffffffffffffffffffffffffffffffff1673ffffffffffffffffffffffffffffffffffffffff163373ffffffffffffffffffffffffffffffffffffffff161461061857600080fd5b6000829050818173ffffffffffffffffffffffffffffffffffffffff166370a08231306040518263ffffffff1660e01b81526004016106579190610c25565b602060405180830381865afa158015610674573d6000803e3d6000fd5b505050506040513d601f19601f820116820180604052508101906106989190611270565b116106a257600080fd5b8073ffffffffffffffffffffffffffffffffffffffff166323b872dd30600160009054906101000a900473ffffffffffffffffffffffffffffffffffffffff16856040518463ffffffff1660e01b8152600401610701939291906114c7565b6020604051808303816000875af1158015610720573d6000803e3d6000fd5b505050506040513d601f19601f8201168201806040525081019061074491906112fe565b50505050565b600080546107579061152d565b80601f01602080910402602001604051908101604052809291908181526020018280546107839061152d565b80156107d05780601f106107a5576101008083540402835291602001916107d0565b820191906000526020600020905b8154815290600101906020018083116107b357829003601f168201915b505050505081565b600381805160208101820180518482526020830160208501208183528095505050505050600091509050805461080d9061152d565b80601f01602080910402602001604051908101604052809291908181526020018280546108399061152d565b80156108865780601f1061085b57610100808354040283529160200191610886565b820191906000526020600020905b81548152906001019060200180831161086957829003601f168201915b505050505081565b600460009054906101000a900473ffffffffffffffffffffffffffffffffffffffff1681565b6060600460009054906101000a900473ffffffffffffffffffffffffffffffffffffffff1673ffffffffffffffffffffffffffffffffffffffff168573ffffffffffffffffffffffffffffffffffffffff1614610946576040517f08c379a000000000000000000000000000000000000000000000000000000000815260040161093d906115aa565b60405180910390fd5b60008611610989576040517f08c379a000000000000000000000000000000000000000000000000000000000815260040161098090611616565b60405180910390fd5b60008280602001905181019061099f91906116a6565b90506000610bb89050600460009054906101000a900473ffffffffffffffffffffffffffffffffffffffff1673ffffffffffffffffffffffffffffffffffffffff168773ffffffffffffffffffffffffffffffffffffffff1614610a84576000610a2e88600460009054906101000a900473ffffffffffffffffffffffffffffffffffffffff1684868e6102fd565b905082604051610a3e919061172b565b60405180910390207e60698de6efe92aee246242a18ba6b13667729e505c416592694fe97f4ba2af888a848e604051610a7a9493929190611742565b60405180910390a2505b81604051610a92919061172b565b60405180910390207e60698de6efe92aee246242a18ba6b13667729e505c416592694fe97f4ba2af87898b8d604051610ace9493929190611742565b60405180910390a26040518060400160405280600981526020017f436f6d706c657465640000000000000000000000000000000000000000000000815250600383604051610b1c919061172b565b90815260200160405180910390209081610b369190611929565b5050509695505050505050565b6000819050919050565b610b5681610b43565b82525050565b6000602082019050610b716000830184610b4d565b92915050565b6000604051905090565b600080fd5b600080fd5b600073ffffffffffffffffffffffffffffffffffffffff82169050919050565b6000610bb682610b8b565b9050919050565b610bc681610bab565b8114610bd157600080fd5b50565b600081359050610be381610bbd565b92915050565b600060208284031215610bff57610bfe610b81565b5b6000610c0d84828501610bd4565b91505092915050565b610c1f81610bab565b82525050565b6000602082019050610c3a6000830184610c16565b92915050565b600062ffffff82169050919050565b610c5881610c40565b8114610c6357600080fd5b50565b600081359050610c7581610c4f565b92915050565b600080fd5b600080fd5b6000601f19601f8301169050919050565b7f4e487b7100000000000000000000000000000000000000000000000000000000600052604160045260246000fd5b610cce82610c85565b810181811067ffffffffffffffff82111715610ced57610cec610c96565b5b80604052505050565b6000610d00610b77565b9050610d0c8282610cc5565b919050565b600067ffffffffffffffff821115610d2c57610d2b610c96565b5b610d3582610c85565b9050602081019050919050565b82818337600083830152505050565b6000610d64610d5f84610d11565b610cf6565b905082815260208101848484011115610d8057610d7f610c80565b5b610d8b848285610d42565b509392505050565b600082601f830112610da857610da7610c7b565b5b8135610db8848260208601610d51565b91505092915050565b6000819050919050565b610dd481610dc1565b8114610ddf57600080fd5b50565b600081359050610df181610dcb565b92915050565b600080600080600060a08688031215610e1357610e12610b81565b5b6000610e2188828901610bd4565b9550506020610e3288828901610bd4565b9450506040610e4388828901610c66565b935050606086013567ffffffffffffffff811115610e6457610e63610b86565b5b610e7088828901610d93565b9250506080610e8188828901610de2565b9150509295509295909350565b610e9781610b43565b8114610ea257600080fd5b50565b600081359050610eb481610e8e565b92915050565b60008060408385031215610ed157610ed0610b81565b5b6000610edf85828601610bd4565b9250506020610ef085828601610ea5565b9150509250929050565b600081519050919050565b600082825260208201905092915050565b60005b83811015610f34578082015181840152602081019050610f19565b60008484015250505050565b6000610f4b82610efa565b610f558185610f05565b9350610f65818560208601610f16565b610f6e81610c85565b840191505092915050565b60006020820190508181036000830152610f938184610f40565b905092915050565b600060208284031215610fb157610fb0610b81565b5b600082013567ffffffffffffffff811115610fcf57610fce610b86565b5b610fdb84828501610d93565b91505092915050565b6000819050919050565b6000611009611004610fff84610b8b565b610fe4565b610b8b565b9050919050565b600061101b82610fee565b9050919050565b600061102d82611010565b9050919050565b61103d81611022565b82525050565b60006020820190506110586000830184611034565b92915050565b600063ffffffff82169050919050565b6110778161105e565b811461108257600080fd5b50565b6000813590506110948161106e565b92915050565b600067ffffffffffffffff8211156110b5576110b4610c96565b5b6110be82610c85565b9050602081019050919050565b60006110de6110d98461109a565b610cf6565b9050828152602081018484840111156110fa576110f9610c80565b5b611105848285610d42565b509392505050565b600082601f83011261112257611121610c7b565b5b81356111328482602086016110cb565b91505092915050565b60008060008060008060c0878903121561115857611157610b81565b5b600061116689828a01610de2565b965050602061117789828a01610ea5565b955050604061118889828a01610bd4565b945050606061119989828a01610bd4565b93505060806111aa89828a01611085565b92505060a087013567ffffffffffffffff8111156111cb576111ca610b86565b5b6111d789828a0161110d565b9150509295509295509295565b600081519050919050565b600082825260208201905092915050565b600061120b826111e4565b61121581856111ef565b9350611225818560208601610f16565b61122e81610c85565b840191505092915050565b600060208201905081810360008301526112538184611200565b905092915050565b60008151905061126a81610e8e565b92915050565b60006020828403121561128657611285610b81565b5b60006112948482850161125b565b91505092915050565b60006040820190506112b26000830185610c16565b6112bf6020830184610b4d565b9392505050565b60008115159050919050565b6112db816112c6565b81146112e657600080fd5b50565b6000815190506112f8816112d2565b92915050565b60006020828403121561131457611313610b81565b5b6000611322848285016112e9565b91505092915050565b7f4e487b7100000000000000000000000000000000000000000000000000000000600052601160045260246000fd5b600061136582610b43565b915061137083610b43565b92508282019050808211156113885761138761132b565b5b92915050565b61139781610bab565b82525050565b6113a681610c40565b82525050565b6113b581610b43565b82525050565b6113c481610b8b565b82525050565b610100820160008201516113e1600085018261138e565b5060208201516113f4602085018261138e565b506040820151611407604085018261139d565b50606082015161141a606085018261138e565b50608082015161142d60808501826113ac565b5060a082015161144060a08501826113ac565b5060c082015161145360c08501826113ac565b5060e082015161146660e08501826113bb565b50505050565b60006101008201905061148260008301846113ca565b92915050565b61149181610dc1565b82525050565b60006040820190506114ac6000830185611488565b81810360208301526114be8184610f40565b90509392505050565b60006060820190506114dc6000830186610c16565b6114e96020830185610c16565b6114f66040830184610b4d565b949350505050565b7f4e487b7100000000000000000000000000000000000000000000000000000000600052602260045260246000fd5b6000600282049050600182168061154557607f821691505b602082108103611558576115576114fe565b5b50919050565b7f57726f6e67206173736574207265636569766564000000000000000000000000600082015250565b6000611594601483610f05565b915061159f8261155e565b602082019050919050565b600060208201905081810360008301526115c381611587565b9050919050565b7f4d75737420706179206174206c65617374203120776569000000000000000000600082015250565b6000611600601783610f05565b915061160b826115ca565b602082019050919050565b6000602082019050818103600083015261162f816115f3565b9050919050565b600061164961164484610d11565b610cf6565b90508281526020810184848401111561166557611664610c80565b5b611670848285610f16565b509392505050565b600082601f83011261168d5761168c610c7b565b5b815161169d848260208601611636565b91505092915050565b6000602082840312156116bc576116bb610b81565b5b600082015167ffffffffffffffff8111156116da576116d9610b86565b5b6116e684828501611678565b91505092915050565b600081905092915050565b600061170582610efa565b61170f81856116ef565b935061171f818560208601610f16565b80840191505092915050565b600061173782846116fa565b915081905092915050565b60006080820190506117576000830187610c16565b6117646020830186610c16565b6117716040830185610b4d565b61177e6060830184611488565b95945050505050565b60008190508160005260206000209050919050565b60006020601f8301049050919050565b600082821b905092915050565b6000600883026117e97fffffffffffffffffffffffffffffffffffffffffffffffffffffffffffffffff826117ac565b6117f386836117ac565b95508019841693508086168417925050509392505050565b600061182661182161181c84610b43565b610fe4565b610b43565b9050919050565b6000819050919050565b6118408361180b565b61185461184c8261182d565b8484546117b9565b825550505050565b600090565b61186961185c565b611874818484611837565b505050565b5b818110156118985761188d600082611861565b60018101905061187a565b5050565b601f8211156118dd576118ae81611787565b6118b78461179c565b810160208510156118c6578190505b6118da6118d28561179c565b830182611879565b50505b505050565b600082821c905092915050565b6000611900600019846008026118e2565b1980831691505092915050565b600061191983836118ef565b9150826002028217905092915050565b61193282610efa565b67ffffffffffffffff81111561194b5761194a610c96565b5b611955825461152d565b61196082828561189c565b600060209050601f8311600181146119935760008415611981578287015190505b61198b858261190d565b8655506119f3565b601f1984166119a186611787565b60005b828110156119c9578489015182556001820191506020850194506020810190506119a4565b868310156119e657848901516119e2601f8916826118ef565b8355505b6001600288020188555050505b50505050505056fea2646970667358221220e2e880354f3895222ee12c38aff8d67f645ddc71a9a2c8495a253152c907df4d64736f6c63430008150033",
  "linkReferences": {},
  "deployedLinkReferences": {}
}