{
  "_format": "hh-sol-artifact-1",
  "contractName": "DestinationGreeter",
  "sourceName": "contracts/DestinationGreeter.sol",
  "abi": [
    {
      "inputs": [
        {
          "internalType": "address",
          "name": "_token",
          "type": "address"
        },
        {
          "internalType": "contract ISwapRouter",
          "name": "_swapRouter",
          "type": "address"
        }
      ],
      "stateMutability": "nonpayable",
      "type": "constructor"
    },
    {
      "anonymous": false,
      "inputs": [
        {
          "indexed": true,
          "internalType": "string",
          "name": "txId",
          "type": "string"
        },
        {
          "indexed": false,
          "internalType": "address",
          "name": "from",
          "type": "address"
        },
        {
          "indexed": false,
          "internalType": "address",
          "name": "_token",
          "type": "address"
        },
        {
          "indexed": false,
          "internalType": "uint256",
          "name": "amount",
          "type": "uint256"
        },
        {
          "indexed": false,
          "internalType": "bytes32",
          "name": "transferId",
          "type": "bytes32"
        }
      ],
      "name": "TransferCompleted",
      "type": "event"
    },
    {
      "inputs": [],
      "name": "amountOut",
      "outputs": [
        {
          "internalType": "uint256",
          "name": "",
          "type": "uint256"
        }
      ],
      "stateMutability": "view",
      "type": "function"
    },
    {
      "inputs": [],
      "name": "greeting",
      "outputs": [
        {
          "internalType": "string",
          "name": "",
          "type": "string"
        }
      ],
      "stateMutability": "view",
      "type": "function"
    },
    {
      "inputs": [],
      "name": "owner",
      "outputs": [
        {
          "internalType": "address",
          "name": "",
          "type": "address"
        }
      ],
      "stateMutability": "view",
      "type": "function"
    },
    {
      "inputs": [
        {
          "internalType": "address",
          "name": "tokenIn",
          "type": "address"
        },
        {
          "internalType": "address",
          "name": "tokenOut",
          "type": "address"
        },
        {
          "internalType": "uint24",
          "name": "fee",
          "type": "uint24"
        }
      ],
      "name": "swap",
      "outputs": [
        {
          "internalType": "uint256",
          "name": "amountOut",
          "type": "uint256"
        }
      ],
      "stateMutability": "payable",
      "type": "function"
    },
    {
      "inputs": [],
      "name": "token",
      "outputs": [
        {
          "internalType": "contract IERC20",
          "name": "",
          "type": "address"
        }
      ],
      "stateMutability": "view",
      "type": "function"
    },
    {
      "inputs": [],
      "name": "tokenOut",
      "outputs": [
        {
          "internalType": "address",
          "name": "",
          "type": "address"
        }
      ],
      "stateMutability": "view",
      "type": "function"
    },
    {
      "inputs": [
        {
          "internalType": "string",
          "name": "",
          "type": "string"
        }
      ],
      "name": "txStatus",
      "outputs": [
        {
          "internalType": "string",
          "name": "",
          "type": "string"
        }
      ],
      "stateMutability": "view",
      "type": "function"
    },
    {
      "inputs": [
        {
          "internalType": "address",
          "name": "_token",
          "type": "address"
        }
      ],
      "name": "updateToken",
      "outputs": [],
      "stateMutability": "nonpayable",
      "type": "function"
    },
    {
      "inputs": [
        {
          "internalType": "bytes32",
          "name": "_transferId",
          "type": "bytes32"
        },
        {
          "internalType": "uint256",
          "name": "_amount",
          "type": "uint256"
        },
        {
          "internalType": "address",
          "name": "_asset",
          "type": "address"
        },
        {
          "internalType": "address",
          "name": "_originSender",
          "type": "address"
        },
        {
          "internalType": "uint32",
          "name": "_origin",
          "type": "uint32"
        },
        {
          "internalType": "bytes",
          "name": "_callData",
          "type": "bytes"
        }
      ],
      "name": "xReceive",
      "outputs": [
        {
          "internalType": "bytes",
          "name": "",
          "type": "bytes"
        }
      ],
      "stateMutability": "nonpayable",
      "type": "function"
    }
  ],
  "bytecode": "0x60806040523480156200001157600080fd5b50604051620019f7380380620019f78339818101604052810190620000379190620001b1565b80600660006101000a81548173ffffffffffffffffffffffffffffffffffffffff021916908373ffffffffffffffffffffffffffffffffffffffff16021790555081600560006101000a81548173ffffffffffffffffffffffffffffffffffffffff021916908373ffffffffffffffffffffffffffffffffffffffff16021790555033600160006101000a81548173ffffffffffffffffffffffffffffffffffffffff021916908373ffffffffffffffffffffffffffffffffffffffff1602179055505050620001f8565b600080fd5b600073ffffffffffffffffffffffffffffffffffffffff82169050919050565b6000620001348262000107565b9050919050565b620001468162000127565b81146200015257600080fd5b50565b60008151905062000166816200013b565b92915050565b6000620001798262000127565b9050919050565b6200018b816200016c565b81146200019757600080fd5b50565b600081519050620001ab8162000180565b92915050565b60008060408385031215620001cb57620001ca62000102565b5b6000620001db8582860162000155565b9250506020620001ee858286016200019a565b9150509250929050565b6117ef80620002086000396000f3fe6080604052600436106100865760003560e01c8063d0202d3b11610059578063d0202d3b1461013a578063ef690cc014610165578063f023531214610190578063fc0c546a146101cd578063fd614f41146101f857610086565b806346ee8d001461008b5780637ad3def2146100b65780637c0add3b146100df5780638da5cb5b1461010f575b600080fd5b34801561009757600080fd5b506100a0610235565b6040516100ad91906109b4565b60405180910390f35b3480156100c257600080fd5b506100dd60048036038101906100d89190610a41565b61023b565b005b6100f960048036038101906100f49190610aa9565b6102d9565b60405161010691906109b4565b60405180910390f35b34801561011b57600080fd5b50610124610557565b6040516101319190610b0b565b60405180910390f35b34801561014657600080fd5b5061014f61057d565b60405161015c9190610b0b565b60405180910390f35b34801561017157600080fd5b5061017a6105a3565b6040516101879190610bb6565b60405180910390f35b34801561019c57600080fd5b506101b760048036038101906101b29190610d0d565b610631565b6040516101c49190610bb6565b60405180910390f35b3480156101d957600080fd5b506101e26106e7565b6040516101ef9190610db5565b60405180910390f35b34801561020457600080fd5b5061021f600480360381019061021a9190610f0f565b61070d565b60405161022c919061100d565b60405180910390f35b60035481565b600160009054906101000a900473ffffffffffffffffffffffffffffffffffffffff1673ffffffffffffffffffffffffffffffffffffffff163373ffffffffffffffffffffffffffffffffffffffff161461029557600080fd5b80600560006101000a81548173ffffffffffffffffffffffffffffffffffffffff021916908373ffffffffffffffffffffffffffffffffffffffff16021790555050565b6000808290506000808691508173ffffffffffffffffffffffffffffffffffffffff166370a08231306040518263ffffffff1660e01b815260040161031e9190610b0b565b602060405180830381865afa15801561033b573d6000803e3d6000fd5b505050506040513d601f19601f8201168201806040525081019061035f9190611044565b90508173ffffffffffffffffffffffffffffffffffffffff1663095ea7b3600660009054906101000a900473ffffffffffffffffffffffffffffffffffffffff16836040518363ffffffff1660e01b81526004016103be929190611071565b6020604051808303816000875af11580156103dd573d6000803e3d6000fd5b505050506040513d601f19601f8201168201806040525081019061040191906110d2565b5060006040518061010001604052808973ffffffffffffffffffffffffffffffffffffffff1681526020018873ffffffffffffffffffffffffffffffffffffffff1681526020018562ffffff1681526020013073ffffffffffffffffffffffffffffffffffffffff1681526020016175304261047d919061112e565b815260200183815260200160008152602001600073ffffffffffffffffffffffffffffffffffffffff168152509050600660009054906101000a900473ffffffffffffffffffffffffffffffffffffffff1673ffffffffffffffffffffffffffffffffffffffff1663414bf389826040518263ffffffff1660e01b81526004016105079190611240565b6020604051808303816000875af1158015610526573d6000803e3d6000fd5b505050506040513d601f19601f8201168201806040525081019061054a9190611044565b9450505050509392505050565b600160009054906101000a900473ffffffffffffffffffffffffffffffffffffffff1681565b600260009054906101000a900473ffffffffffffffffffffffffffffffffffffffff1681565b600080546105b09061128b565b80601f01602080910402602001604051908101604052809291908181526020018280546105dc9061128b565b80156106295780601f106105fe57610100808354040283529160200191610629565b820191906000526020600020905b81548152906001019060200180831161060c57829003601f168201915b505050505081565b60048180516020810182018051848252602083016020850120818352809550505050505060009150905080546106669061128b565b80601f01602080910402602001604051908101604052809291908181526020018280546106929061128b565b80156106df5780601f106106b4576101008083540402835291602001916106df565b820191906000526020600020905b8154815290600101906020018083116106c257829003601f168201915b505050505081565b600560009054906101000a900473ffffffffffffffffffffffffffffffffffffffff1681565b6060600560009054906101000a900473ffffffffffffffffffffffffffffffffffffffff1673ffffffffffffffffffffffffffffffffffffffff168573ffffffffffffffffffffffffffffffffffffffff161461079f576040517f08c379a000000000000000000000000000000000000000000000000000000000815260040161079690611308565b60405180910390fd5b600086116107e2576040517f08c379a00000000000000000000000000000000000000000000000000000000081526004016107d990611374565b60405180910390fd5b600080838060200190518101906107f99190611442565b9150915081600260006101000a81548173ffffffffffffffffffffffffffffffffffffffff021916908373ffffffffffffffffffffffffffffffffffffffff1602179055506000610bb890508273ffffffffffffffffffffffffffffffffffffffff168873ffffffffffffffffffffffffffffffffffffffff16036108db5760006108858985846102d9565b90508260405161089591906114da565b60405180910390207e60698de6efe92aee246242a18ba6b13667729e505c416592694fe97f4ba2af898b848f6040516108d19493929190611500565b60405180910390a2505b816040516108e991906114da565b60405180910390207e60698de6efe92aee246242a18ba6b13667729e505c416592694fe97f4ba2af888a8c8e6040516109259493929190611500565b60405180910390a26040518060400160405280600981526020017f436f6d706c65746564000000000000000000000000000000000000000000000081525060048360405161097391906114da565b9081526020016040518091039020908161098d91906116e7565b505050509695505050505050565b6000819050919050565b6109ae8161099b565b82525050565b60006020820190506109c960008301846109a5565b92915050565b6000604051905090565b600080fd5b600080fd5b600073ffffffffffffffffffffffffffffffffffffffff82169050919050565b6000610a0e826109e3565b9050919050565b610a1e81610a03565b8114610a2957600080fd5b50565b600081359050610a3b81610a15565b92915050565b600060208284031215610a5757610a566109d9565b5b6000610a6584828501610a2c565b91505092915050565b600062ffffff82169050919050565b610a8681610a6e565b8114610a9157600080fd5b50565b600081359050610aa381610a7d565b92915050565b600080600060608486031215610ac257610ac16109d9565b5b6000610ad086828701610a2c565b9350506020610ae186828701610a2c565b9250506040610af286828701610a94565b9150509250925092565b610b0581610a03565b82525050565b6000602082019050610b206000830184610afc565b92915050565b600081519050919050565b600082825260208201905092915050565b60005b83811015610b60578082015181840152602081019050610b45565b60008484015250505050565b6000601f19601f8301169050919050565b6000610b8882610b26565b610b928185610b31565b9350610ba2818560208601610b42565b610bab81610b6c565b840191505092915050565b60006020820190508181036000830152610bd08184610b7d565b905092915050565b600080fd5b600080fd5b7f4e487b7100000000000000000000000000000000000000000000000000000000600052604160045260246000fd5b610c1a82610b6c565b810181811067ffffffffffffffff82111715610c3957610c38610be2565b5b80604052505050565b6000610c4c6109cf565b9050610c588282610c11565b919050565b600067ffffffffffffffff821115610c7857610c77610be2565b5b610c8182610b6c565b9050602081019050919050565b82818337600083830152505050565b6000610cb0610cab84610c5d565b610c42565b905082815260208101848484011115610ccc57610ccb610bdd565b5b610cd7848285610c8e565b509392505050565b600082601f830112610cf457610cf3610bd8565b5b8135610d04848260208601610c9d565b91505092915050565b600060208284031215610d2357610d226109d9565b5b600082013567ffffffffffffffff811115610d4157610d406109de565b5b610d4d84828501610cdf565b91505092915050565b6000819050919050565b6000610d7b610d76610d71846109e3565b610d56565b6109e3565b9050919050565b6000610d8d82610d60565b9050919050565b6000610d9f82610d82565b9050919050565b610daf81610d94565b82525050565b6000602082019050610dca6000830184610da6565b92915050565b6000819050919050565b610de381610dd0565b8114610dee57600080fd5b50565b600081359050610e0081610dda565b92915050565b610e0f8161099b565b8114610e1a57600080fd5b50565b600081359050610e2c81610e06565b92915050565b600063ffffffff82169050919050565b610e4b81610e32565b8114610e5657600080fd5b50565b600081359050610e6881610e42565b92915050565b600067ffffffffffffffff821115610e8957610e88610be2565b5b610e9282610b6c565b9050602081019050919050565b6000610eb2610ead84610e6e565b610c42565b905082815260208101848484011115610ece57610ecd610bdd565b5b610ed9848285610c8e565b509392505050565b600082601f830112610ef657610ef5610bd8565b5b8135610f06848260208601610e9f565b91505092915050565b60008060008060008060c08789031215610f2c57610f2b6109d9565b5b6000610f3a89828a01610df1565b9650506020610f4b89828a01610e1d565b9550506040610f5c89828a01610a2c565b9450506060610f6d89828a01610a2c565b9350506080610f7e89828a01610e59565b92505060a087013567ffffffffffffffff811115610f9f57610f9e6109de565b5b610fab89828a01610ee1565b9150509295509295509295565b600081519050919050565b600082825260208201905092915050565b6000610fdf82610fb8565b610fe98185610fc3565b9350610ff9818560208601610b42565b61100281610b6c565b840191505092915050565b600060208201905081810360008301526110278184610fd4565b905092915050565b60008151905061103e81610e06565b92915050565b60006020828403121561105a576110596109d9565b5b60006110688482850161102f565b91505092915050565b60006040820190506110866000830185610afc565b61109360208301846109a5565b9392505050565b60008115159050919050565b6110af8161109a565b81146110ba57600080fd5b50565b6000815190506110cc816110a6565b92915050565b6000602082840312156110e8576110e76109d9565b5b60006110f6848285016110bd565b91505092915050565b7f4e487b7100000000000000000000000000000000000000000000000000000000600052601160045260246000fd5b60006111398261099b565b91506111448361099b565b925082820190508082111561115c5761115b6110ff565b5b92915050565b61116b81610a03565b82525050565b61117a81610a6e565b82525050565b6111898161099b565b82525050565b611198816109e3565b82525050565b610100820160008201516111b56000850182611162565b5060208201516111c86020850182611162565b5060408201516111db6040850182611171565b5060608201516111ee6060850182611162565b5060808201516112016080850182611180565b5060a082015161121460a0850182611180565b5060c082015161122760c0850182611180565b5060e082015161123a60e085018261118f565b50505050565b600061010082019050611256600083018461119e565b92915050565b7f4e487b7100000000000000000000000000000000000000000000000000000000600052602260045260246000fd5b600060028204905060018216806112a357607f821691505b6020821081036112b6576112b561125c565b5b50919050565b7f57726f6e67206173736574207265636569766564000000000000000000000000600082015250565b60006112f2601483610b31565b91506112fd826112bc565b602082019050919050565b60006020820190508181036000830152611321816112e5565b9050919050565b7f4d75737420706179206174206c65617374203120776569000000000000000000600082015250565b600061135e601783610b31565b915061136982611328565b602082019050919050565b6000602082019050818103600083015261138d81611351565b9050919050565b600061139f826109e3565b9050919050565b6113af81611394565b81146113ba57600080fd5b50565b6000815190506113cc816113a6565b92915050565b60006113e56113e084610c5d565b610c42565b90508281526020810184848401111561140157611400610bdd565b5b61140c848285610b42565b509392505050565b600082601f83011261142957611428610bd8565b5b81516114398482602086016113d2565b91505092915050565b60008060408385031215611459576114586109d9565b5b6000611467858286016113bd565b925050602083015167ffffffffffffffff811115611488576114876109de565b5b61149485828601611414565b9150509250929050565b600081905092915050565b60006114b482610b26565b6114be818561149e565b93506114ce818560208601610b42565b80840191505092915050565b60006114e682846114a9565b915081905092915050565b6114fa81610dd0565b82525050565b60006080820190506115156000830187610afc565b6115226020830186610afc565b61152f60408301856109a5565b61153c60608301846114f1565b95945050505050565b60008190508160005260206000209050919050565b60006020601f8301049050919050565b600082821b905092915050565b6000600883026115a77fffffffffffffffffffffffffffffffffffffffffffffffffffffffffffffffff8261156a565b6115b1868361156a565b95508019841693508086168417925050509392505050565b60006115e46115df6115da8461099b565b610d56565b61099b565b9050919050565b6000819050919050565b6115fe836115c9565b61161261160a826115eb565b848454611577565b825550505050565b600090565b61162761161a565b6116328184846115f5565b505050565b5b818110156116565761164b60008261161f565b600181019050611638565b5050565b601f82111561169b5761166c81611545565b6116758461155a565b81016020851015611684578190505b6116986116908561155a565b830182611637565b50505b505050565b600082821c905092915050565b60006116be600019846008026116a0565b1980831691505092915050565b60006116d783836116ad565b9150826002028217905092915050565b6116f082610b26565b67ffffffffffffffff81111561170957611708610be2565b5b611713825461128b565b61171e82828561165a565b600060209050601f831160018114611751576000841561173f578287015190505b61174985826116cb565b8655506117b1565b601f19841661175f86611545565b60005b8281101561178757848901518255600182019150602085019450602081019050611762565b868310156117a457848901516117a0601f8916826116ad565b8355505b6001600288020188555050505b50505050505056fea26469706673582212209628ec2184c113463d78a7284585d3a040947670290b687f84cafd6d26b1eb8064736f6c63430008150033",
  "linkReferences": {},
  "deployedLinkReferences": {}
}