{
  "_format": "hh-sol-artifact-1",
  "contractName": "DestinationGreeter",
  "sourceName": "contracts/DestinationGreeter.sol",
  "abi": [
    {
      "inputs": [
        {
          "internalType": "address",
          "name": "_token",
          "type": "address"
        },
        {
          "internalType": "contract ISwapRouter",
          "name": "_swapRouter",
          "type": "address"
        }
      ],
      "stateMutability": "nonpayable",
      "type": "constructor"
    },
    {
      "anonymous": false,
      "inputs": [
        {
          "indexed": false,
          "internalType": "bytes32",
          "name": "transferId",
          "type": "bytes32"
        },
        {
          "indexed": false,
          "internalType": "string",
          "name": "txId",
          "type": "string"
        }
      ],
      "name": "SwapFailed",
      "type": "event"
    },
    {
      "anonymous": false,
      "inputs": [
        {
          "indexed": true,
          "internalType": "string",
          "name": "txId",
          "type": "string"
        },
        {
          "indexed": false,
          "internalType": "address",
          "name": "from",
          "type": "address"
        },
        {
          "indexed": false,
          "internalType": "address",
          "name": "_token",
          "type": "address"
        },
        {
          "indexed": false,
          "internalType": "uint256",
          "name": "amount",
          "type": "uint256"
        },
        {
          "indexed": false,
          "internalType": "bytes32",
          "name": "transferId",
          "type": "bytes32"
        }
      ],
      "name": "TransferCompleted",
      "type": "event"
    },
    {
      "inputs": [],
      "name": "amountOut",
      "outputs": [
        {
          "internalType": "uint256",
          "name": "",
          "type": "uint256"
        }
      ],
      "stateMutability": "view",
      "type": "function"
    },
    {
      "inputs": [],
      "name": "greeting",
      "outputs": [
        {
          "internalType": "string",
          "name": "",
          "type": "string"
        }
      ],
      "stateMutability": "view",
      "type": "function"
    },
    {
      "inputs": [],
      "name": "owner",
      "outputs": [
        {
          "internalType": "address",
          "name": "",
          "type": "address"
        }
      ],
      "stateMutability": "view",
      "type": "function"
    },
    {
      "inputs": [
        {
          "internalType": "address",
          "name": "tokenIn",
          "type": "address"
        },
        {
          "internalType": "address",
          "name": "tokenOut",
          "type": "address"
        },
        {
          "internalType": "uint24",
          "name": "fee",
          "type": "uint24"
        },
        {
          "internalType": "string",
          "name": "txId",
          "type": "string"
        },
        {
          "internalType": "bytes32",
          "name": "transferId",
          "type": "bytes32"
        }
      ],
      "name": "swap",
      "outputs": [
        {
          "internalType": "uint256",
          "name": "amountOut",
          "type": "uint256"
        }
      ],
      "stateMutability": "payable",
      "type": "function"
    },
    {
      "inputs": [],
      "name": "token",
      "outputs": [
        {
          "internalType": "contract IERC20",
          "name": "",
          "type": "address"
        }
      ],
      "stateMutability": "view",
      "type": "function"
    },
    {
      "inputs": [],
      "name": "tokenOut",
      "outputs": [
        {
          "internalType": "address",
          "name": "",
          "type": "address"
        }
      ],
      "stateMutability": "view",
      "type": "function"
    },
    {
      "inputs": [
        {
          "internalType": "string",
          "name": "",
          "type": "string"
        }
      ],
      "name": "txStatus",
      "outputs": [
        {
          "internalType": "string",
          "name": "",
          "type": "string"
        }
      ],
      "stateMutability": "view",
      "type": "function"
    },
    {
      "inputs": [
        {
          "internalType": "address",
          "name": "_token",
          "type": "address"
        }
      ],
      "name": "updateToken",
      "outputs": [],
      "stateMutability": "nonpayable",
      "type": "function"
    },
    {
      "inputs": [
        {
          "internalType": "address",
          "name": "_token",
          "type": "address"
        },
        {
          "internalType": "uint256",
          "name": "_amount",
          "type": "uint256"
        }
      ],
      "name": "withdrawToken",
      "outputs": [],
      "stateMutability": "nonpayable",
      "type": "function"
    },
    {
      "inputs": [
        {
          "internalType": "bytes32",
          "name": "_transferId",
          "type": "bytes32"
        },
        {
          "internalType": "uint256",
          "name": "_amount",
          "type": "uint256"
        },
        {
          "internalType": "address",
          "name": "_asset",
          "type": "address"
        },
        {
          "internalType": "address",
          "name": "_originSender",
          "type": "address"
        },
        {
          "internalType": "uint32",
          "name": "_origin",
          "type": "uint32"
        },
        {
          "internalType": "bytes",
          "name": "_callData",
          "type": "bytes"
        }
      ],
      "name": "xReceive",
      "outputs": [
        {
          "internalType": "bytes",
          "name": "",
          "type": "bytes"
        }
      ],
      "stateMutability": "nonpayable",
      "type": "function"
    }
  ],
  "bytecode": "0x60806040523480156200001157600080fd5b5060405162001ce738038062001ce78339818101604052810190620000379190620001b1565b80600660006101000a81548173ffffffffffffffffffffffffffffffffffffffff021916908373ffffffffffffffffffffffffffffffffffffffff16021790555081600560006101000a81548173ffffffffffffffffffffffffffffffffffffffff021916908373ffffffffffffffffffffffffffffffffffffffff16021790555033600160006101000a81548173ffffffffffffffffffffffffffffffffffffffff021916908373ffffffffffffffffffffffffffffffffffffffff1602179055505050620001f8565b600080fd5b600073ffffffffffffffffffffffffffffffffffffffff82169050919050565b6000620001348262000107565b9050919050565b620001468162000127565b81146200015257600080fd5b50565b60008151905062000166816200013b565b92915050565b6000620001798262000127565b9050919050565b6200018b816200016c565b81146200019757600080fd5b50565b600081519050620001ab8162000180565b92915050565b60008060408385031215620001cb57620001ca62000102565b5b6000620001db8582860162000155565b9250506020620001ee858286016200019a565b9150509250929050565b611adf80620002086000396000f3fe6080604052600436106100915760003560e01c8063d0202d3b11610059578063d0202d3b1461016e578063ef690cc014610199578063f0235312146101c4578063fc0c546a14610201578063fd614f411461022c57610091565b806346ee8d00146100965780637ad3def2146100c15780638da5cb5b146100ea57806396357145146101155780639e281a9814610145575b600080fd5b3480156100a257600080fd5b506100ab610269565b6040516100b89190610bb9565b60405180910390f35b3480156100cd57600080fd5b506100e860048036038101906100e39190610c46565b61026f565b005b3480156100f657600080fd5b506100ff61030d565b60405161010c9190610c82565b60405180910390f35b61012f600480360381019061012a9190610e54565b610333565b60405161013c9190610bb9565b60405180910390f35b34801561015157600080fd5b5061016c60048036038101906101679190610f17565b6105f4565b005b34801561017a57600080fd5b50610183610780565b6040516101909190610c82565b60405180910390f35b3480156101a557600080fd5b506101ae6107a6565b6040516101bb9190610fd6565b60405180910390f35b3480156101d057600080fd5b506101eb60048036038101906101e69190610ff8565b610834565b6040516101f89190610fd6565b60405180910390f35b34801561020d57600080fd5b506102166108ea565b60405161022391906110a0565b60405180910390f35b34801561023857600080fd5b50610253600480360381019061024e9190611198565b610910565b6040516102609190611296565b60405180910390f35b60035481565b600160009054906101000a900473ffffffffffffffffffffffffffffffffffffffff1673ffffffffffffffffffffffffffffffffffffffff163373ffffffffffffffffffffffffffffffffffffffff16146102c957600080fd5b80600560006101000a81548173ffffffffffffffffffffffffffffffffffffffff021916908373ffffffffffffffffffffffffffffffffffffffff16021790555050565b600160009054906101000a900473ffffffffffffffffffffffffffffffffffffffff1681565b60008084905060008060008992508273ffffffffffffffffffffffffffffffffffffffff166370a08231306040518263ffffffff1660e01b815260040161037a9190610c82565b602060405180830381865afa158015610397573d6000803e3d6000fd5b505050506040513d601f19601f820116820180604052508101906103bb91906112cd565b91508273ffffffffffffffffffffffffffffffffffffffff1663095ea7b3600660009054906101000a900473ffffffffffffffffffffffffffffffffffffffff16846040518363ffffffff1660e01b815260040161041a9291906112fa565b6020604051808303816000875af1158015610439573d6000803e3d6000fd5b505050506040513d601f19601f8201168201806040525081019061045d919061135b565b5060006040518061010001604052808c73ffffffffffffffffffffffffffffffffffffffff1681526020018b73ffffffffffffffffffffffffffffffffffffffff1681526020018662ffffff1681526020013073ffffffffffffffffffffffffffffffffffffffff168152602001617530426104d991906113b7565b815260200184815260200160008152602001600073ffffffffffffffffffffffffffffffffffffffff168152509050600660009054906101000a900473ffffffffffffffffffffffffffffffffffffffff1673ffffffffffffffffffffffffffffffffffffffff1663414bf389826040518263ffffffff1660e01b815260040161056391906114c9565b6020604051808303816000875af192505050801561059f57506040513d601f19601f8201168201806040525081019061059c91906112cd565b60015b6105e1577fa44aaf67db77915b69a8df87c3b384b874d389b5e297ce7df5cdd2dc61a3c19487896040516105d49291906114f4565b60405180910390a16105e6565b809250505b505050505095945050505050565b600160009054906101000a900473ffffffffffffffffffffffffffffffffffffffff1673ffffffffffffffffffffffffffffffffffffffff163373ffffffffffffffffffffffffffffffffffffffff161461064e57600080fd5b6000829050818173ffffffffffffffffffffffffffffffffffffffff166370a08231306040518263ffffffff1660e01b815260040161068d9190610c82565b602060405180830381865afa1580156106aa573d6000803e3d6000fd5b505050506040513d601f19601f820116820180604052508101906106ce91906112cd565b116106d857600080fd5b8073ffffffffffffffffffffffffffffffffffffffff166323b872dd30600160009054906101000a900473ffffffffffffffffffffffffffffffffffffffff16856040518463ffffffff1660e01b815260040161073793929190611524565b6020604051808303816000875af1158015610756573d6000803e3d6000fd5b505050506040513d601f19601f8201168201806040525081019061077a919061135b565b50505050565b600260009054906101000a900473ffffffffffffffffffffffffffffffffffffffff1681565b600080546107b39061158a565b80601f01602080910402602001604051908101604052809291908181526020018280546107df9061158a565b801561082c5780601f106108015761010080835404028352916020019161082c565b820191906000526020600020905b81548152906001019060200180831161080f57829003601f168201915b505050505081565b60048180516020810182018051848252602083016020850120818352809550505050505060009150905080546108699061158a565b80601f01602080910402602001604051908101604052809291908181526020018280546108959061158a565b80156108e25780601f106108b7576101008083540402835291602001916108e2565b820191906000526020600020905b8154815290600101906020018083116108c557829003601f168201915b505050505081565b600560009054906101000a900473ffffffffffffffffffffffffffffffffffffffff1681565b6060600560009054906101000a900473ffffffffffffffffffffffffffffffffffffffff1673ffffffffffffffffffffffffffffffffffffffff168573ffffffffffffffffffffffffffffffffffffffff16146109a2576040517f08c379a000000000000000000000000000000000000000000000000000000000815260040161099990611607565b60405180910390fd5b600086116109e5576040517f08c379a00000000000000000000000000000000000000000000000000000000081526004016109dc90611673565b60405180910390fd5b600080838060200190518101906109fc9190611741565b9150915081600260006101000a81548173ffffffffffffffffffffffffffffffffffffffff021916908373ffffffffffffffffffffffffffffffffffffffff1602179055506000610bb890508273ffffffffffffffffffffffffffffffffffffffff168873ffffffffffffffffffffffffffffffffffffffff1603610ae0576000610a8a898584868f610333565b905082604051610a9a91906117d9565b60405180910390207e60698de6efe92aee246242a18ba6b13667729e505c416592694fe97f4ba2af898b848f604051610ad694939291906117f0565b60405180910390a2505b81604051610aee91906117d9565b60405180910390207e60698de6efe92aee246242a18ba6b13667729e505c416592694fe97f4ba2af888a8c8e604051610b2a94939291906117f0565b60405180910390a26040518060400160405280600981526020017f436f6d706c657465640000000000000000000000000000000000000000000000815250600483604051610b7891906117d9565b90815260200160405180910390209081610b9291906119d7565b505050509695505050505050565b6000819050919050565b610bb381610ba0565b82525050565b6000602082019050610bce6000830184610baa565b92915050565b6000604051905090565b600080fd5b600080fd5b600073ffffffffffffffffffffffffffffffffffffffff82169050919050565b6000610c1382610be8565b9050919050565b610c2381610c08565b8114610c2e57600080fd5b50565b600081359050610c4081610c1a565b92915050565b600060208284031215610c5c57610c5b610bde565b5b6000610c6a84828501610c31565b91505092915050565b610c7c81610c08565b82525050565b6000602082019050610c976000830184610c73565b92915050565b600062ffffff82169050919050565b610cb581610c9d565b8114610cc057600080fd5b50565b600081359050610cd281610cac565b92915050565b600080fd5b600080fd5b6000601f19601f8301169050919050565b7f4e487b7100000000000000000000000000000000000000000000000000000000600052604160045260246000fd5b610d2b82610ce2565b810181811067ffffffffffffffff82111715610d4a57610d49610cf3565b5b80604052505050565b6000610d5d610bd4565b9050610d698282610d22565b919050565b600067ffffffffffffffff821115610d8957610d88610cf3565b5b610d9282610ce2565b9050602081019050919050565b82818337600083830152505050565b6000610dc1610dbc84610d6e565b610d53565b905082815260208101848484011115610ddd57610ddc610cdd565b5b610de8848285610d9f565b509392505050565b600082601f830112610e0557610e04610cd8565b5b8135610e15848260208601610dae565b91505092915050565b6000819050919050565b610e3181610e1e565b8114610e3c57600080fd5b50565b600081359050610e4e81610e28565b92915050565b600080600080600060a08688031215610e7057610e6f610bde565b5b6000610e7e88828901610c31565b9550506020610e8f88828901610c31565b9450506040610ea088828901610cc3565b935050606086013567ffffffffffffffff811115610ec157610ec0610be3565b5b610ecd88828901610df0565b9250506080610ede88828901610e3f565b9150509295509295909350565b610ef481610ba0565b8114610eff57600080fd5b50565b600081359050610f1181610eeb565b92915050565b60008060408385031215610f2e57610f2d610bde565b5b6000610f3c85828601610c31565b9250506020610f4d85828601610f02565b9150509250929050565b600081519050919050565b600082825260208201905092915050565b60005b83811015610f91578082015181840152602081019050610f76565b60008484015250505050565b6000610fa882610f57565b610fb28185610f62565b9350610fc2818560208601610f73565b610fcb81610ce2565b840191505092915050565b60006020820190508181036000830152610ff08184610f9d565b905092915050565b60006020828403121561100e5761100d610bde565b5b600082013567ffffffffffffffff81111561102c5761102b610be3565b5b61103884828501610df0565b91505092915050565b6000819050919050565b600061106661106161105c84610be8565b611041565b610be8565b9050919050565b60006110788261104b565b9050919050565b600061108a8261106d565b9050919050565b61109a8161107f565b82525050565b60006020820190506110b56000830184611091565b92915050565b600063ffffffff82169050919050565b6110d4816110bb565b81146110df57600080fd5b50565b6000813590506110f1816110cb565b92915050565b600067ffffffffffffffff82111561111257611111610cf3565b5b61111b82610ce2565b9050602081019050919050565b600061113b611136846110f7565b610d53565b90508281526020810184848401111561115757611156610cdd565b5b611162848285610d9f565b509392505050565b600082601f83011261117f5761117e610cd8565b5b813561118f848260208601611128565b91505092915050565b60008060008060008060c087890312156111b5576111b4610bde565b5b60006111c389828a01610e3f565b96505060206111d489828a01610f02565b95505060406111e589828a01610c31565b94505060606111f689828a01610c31565b935050608061120789828a016110e2565b92505060a087013567ffffffffffffffff81111561122857611227610be3565b5b61123489828a0161116a565b9150509295509295509295565b600081519050919050565b600082825260208201905092915050565b600061126882611241565b611272818561124c565b9350611282818560208601610f73565b61128b81610ce2565b840191505092915050565b600060208201905081810360008301526112b0818461125d565b905092915050565b6000815190506112c781610eeb565b92915050565b6000602082840312156112e3576112e2610bde565b5b60006112f1848285016112b8565b91505092915050565b600060408201905061130f6000830185610c73565b61131c6020830184610baa565b9392505050565b60008115159050919050565b61133881611323565b811461134357600080fd5b50565b6000815190506113558161132f565b92915050565b60006020828403121561137157611370610bde565b5b600061137f84828501611346565b91505092915050565b7f4e487b7100000000000000000000000000000000000000000000000000000000600052601160045260246000fd5b60006113c282610ba0565b91506113cd83610ba0565b92508282019050808211156113e5576113e4611388565b5b92915050565b6113f481610c08565b82525050565b61140381610c9d565b82525050565b61141281610ba0565b82525050565b61142181610be8565b82525050565b6101008201600082015161143e60008501826113eb565b50602082015161145160208501826113eb565b50604082015161146460408501826113fa565b50606082015161147760608501826113eb565b50608082015161148a6080850182611409565b5060a082015161149d60a0850182611409565b5060c08201516114b060c0850182611409565b5060e08201516114c360e0850182611418565b50505050565b6000610100820190506114df6000830184611427565b92915050565b6114ee81610e1e565b82525050565b600060408201905061150960008301856114e5565b818103602083015261151b8184610f9d565b90509392505050565b60006060820190506115396000830186610c73565b6115466020830185610c73565b6115536040830184610baa565b949350505050565b7f4e487b7100000000000000000000000000000000000000000000000000000000600052602260045260246000fd5b600060028204905060018216806115a257607f821691505b6020821081036115b5576115b461155b565b5b50919050565b7f57726f6e67206173736574207265636569766564000000000000000000000000600082015250565b60006115f1601483610f62565b91506115fc826115bb565b602082019050919050565b60006020820190508181036000830152611620816115e4565b9050919050565b7f4d75737420706179206174206c65617374203120776569000000000000000000600082015250565b600061165d601783610f62565b915061166882611627565b602082019050919050565b6000602082019050818103600083015261168c81611650565b9050919050565b600061169e82610be8565b9050919050565b6116ae81611693565b81146116b957600080fd5b50565b6000815190506116cb816116a5565b92915050565b60006116e46116df84610d6e565b610d53565b905082815260208101848484011115611700576116ff610cdd565b5b61170b848285610f73565b509392505050565b600082601f83011261172857611727610cd8565b5b81516117388482602086016116d1565b91505092915050565b6000806040838503121561175857611757610bde565b5b6000611766858286016116bc565b925050602083015167ffffffffffffffff81111561178757611786610be3565b5b61179385828601611713565b9150509250929050565b600081905092915050565b60006117b382610f57565b6117bd818561179d565b93506117cd818560208601610f73565b80840191505092915050565b60006117e582846117a8565b915081905092915050565b60006080820190506118056000830187610c73565b6118126020830186610c73565b61181f6040830185610baa565b61182c60608301846114e5565b95945050505050565b60008190508160005260206000209050919050565b60006020601f8301049050919050565b600082821b905092915050565b6000600883026118977fffffffffffffffffffffffffffffffffffffffffffffffffffffffffffffffff8261185a565b6118a1868361185a565b95508019841693508086168417925050509392505050565b60006118d46118cf6118ca84610ba0565b611041565b610ba0565b9050919050565b6000819050919050565b6118ee836118b9565b6119026118fa826118db565b848454611867565b825550505050565b600090565b61191761190a565b6119228184846118e5565b505050565b5b818110156119465761193b60008261190f565b600181019050611928565b5050565b601f82111561198b5761195c81611835565b6119658461184a565b81016020851015611974578190505b6119886119808561184a565b830182611927565b50505b505050565b600082821c905092915050565b60006119ae60001984600802611990565b1980831691505092915050565b60006119c7838361199d565b9150826002028217905092915050565b6119e082610f57565b67ffffffffffffffff8111156119f9576119f8610cf3565b5b611a03825461158a565b611a0e82828561194a565b600060209050601f831160018114611a415760008415611a2f578287015190505b611a3985826119bb565b865550611aa1565b601f198416611a4f86611835565b60005b82811015611a7757848901518255600182019150602085019450602081019050611a52565b86831015611a945784890151611a90601f89168261199d565b8355505b6001600288020188555050505b50505050505056fea2646970667358221220412bb50489265ca054483a3347bc28f26c74afdf47eba151175c45a7962edc7864736f6c63430008150033",
  "linkReferences": {},
  "deployedLinkReferences": {}
}