{
  "_format": "hh-sol-artifact-1",
  "contractName": "DestinationGreeter",
  "sourceName": "contracts/DestinationGreeter.sol",
  "abi": [
    {
      "inputs": [
        {
          "internalType": "address",
          "name": "_token",
          "type": "address"
        },
        {
          "internalType": "contract ISwapRouter",
          "name": "_swapRouter",
          "type": "address"
        }
      ],
      "stateMutability": "nonpayable",
      "type": "constructor"
    },
    {
      "anonymous": false,
      "inputs": [
        {
          "indexed": true,
          "internalType": "bytes32",
          "name": "_tId",
          "type": "bytes32"
        },
        {
          "indexed": false,
          "internalType": "uint32",
          "name": "_originDomain",
          "type": "uint32"
        },
        {
          "indexed": true,
          "internalType": "address",
          "name": "_from",
          "type": "address"
        },
        {
          "indexed": true,
          "internalType": "address",
          "name": "_to",
          "type": "address"
        },
        {
          "indexed": false,
          "internalType": "address",
          "name": "_inputToken",
          "type": "address"
        },
        {
          "indexed": false,
          "internalType": "address",
          "name": "_outputToken",
          "type": "address"
        },
        {
          "indexed": false,
          "internalType": "uint256",
          "name": "_amountIn",
          "type": "uint256"
        },
        {
          "indexed": false,
          "internalType": "uint256",
          "name": "_amountOut",
          "type": "uint256"
        }
      ],
      "name": "TransferCompleted",
      "type": "event"
    },
    {
      "inputs": [],
      "name": "amountOut",
      "outputs": [
        {
          "internalType": "uint256",
          "name": "",
          "type": "uint256"
        }
      ],
      "stateMutability": "view",
      "type": "function"
    },
    {
      "inputs": [],
      "name": "greeting",
      "outputs": [
        {
          "internalType": "string",
          "name": "",
          "type": "string"
        }
      ],
      "stateMutability": "view",
      "type": "function"
    },
    {
      "inputs": [],
      "name": "owner",
      "outputs": [
        {
          "internalType": "address",
          "name": "",
          "type": "address"
        }
      ],
      "stateMutability": "view",
      "type": "function"
    },
    {
      "inputs": [
        {
          "internalType": "address",
          "name": "tokenIn",
          "type": "address"
        },
        {
          "internalType": "address",
          "name": "tokenOut",
          "type": "address"
        },
        {
          "internalType": "uint24",
          "name": "fee",
          "type": "uint24"
        }
      ],
      "name": "swap",
      "outputs": [
        {
          "internalType": "uint256",
          "name": "amountOut",
          "type": "uint256"
        }
      ],
      "stateMutability": "payable",
      "type": "function"
    },
    {
      "inputs": [],
      "name": "token",
      "outputs": [
        {
          "internalType": "contract IERC20",
          "name": "",
          "type": "address"
        }
      ],
      "stateMutability": "view",
      "type": "function"
    },
    {
      "inputs": [],
      "name": "tokenOut",
      "outputs": [
        {
          "internalType": "address",
          "name": "",
          "type": "address"
        }
      ],
      "stateMutability": "view",
      "type": "function"
    },
    {
      "inputs": [
        {
          "internalType": "address",
          "name": "_token",
          "type": "address"
        }
      ],
      "name": "updateToken",
      "outputs": [],
      "stateMutability": "nonpayable",
      "type": "function"
    },
    {
      "inputs": [
        {
          "internalType": "bytes32",
          "name": "_transferId",
          "type": "bytes32"
        },
        {
          "internalType": "uint256",
          "name": "_amount",
          "type": "uint256"
        },
        {
          "internalType": "address",
          "name": "_asset",
          "type": "address"
        },
        {
          "internalType": "address",
          "name": "_originSender",
          "type": "address"
        },
        {
          "internalType": "uint32",
          "name": "_origin",
          "type": "uint32"
        },
        {
          "internalType": "bytes",
          "name": "_callData",
          "type": "bytes"
        }
      ],
      "name": "xReceive",
      "outputs": [
        {
          "internalType": "bytes",
          "name": "",
          "type": "bytes"
        }
      ],
      "stateMutability": "nonpayable",
      "type": "function"
    }
  ],
  "bytecode": "0x60806040523480156200001157600080fd5b50604051620013ef380380620013ef8339818101604052810190620000379190620001b1565b80600560006101000a81548173ffffffffffffffffffffffffffffffffffffffff021916908373ffffffffffffffffffffffffffffffffffffffff16021790555081600460006101000a81548173ffffffffffffffffffffffffffffffffffffffff021916908373ffffffffffffffffffffffffffffffffffffffff16021790555033600160006101000a81548173ffffffffffffffffffffffffffffffffffffffff021916908373ffffffffffffffffffffffffffffffffffffffff1602179055505050620001f8565b600080fd5b600073ffffffffffffffffffffffffffffffffffffffff82169050919050565b6000620001348262000107565b9050919050565b620001468162000127565b81146200015257600080fd5b50565b60008151905062000166816200013b565b92915050565b6000620001798262000127565b9050919050565b6200018b816200016c565b81146200019757600080fd5b50565b600081519050620001ab8162000180565b92915050565b60008060408385031215620001cb57620001ca62000102565b5b6000620001db8582860162000155565b9250506020620001ee858286016200019a565b9150509250929050565b6111e780620002086000396000f3fe60806040526004361061007b5760003560e01c8063d0202d3b1161004e578063d0202d3b1461012f578063ef690cc01461015a578063fc0c546a14610185578063fd614f41146101b05761007b565b806346ee8d00146100805780637ad3def2146100ab5780637c0add3b146100d45780638da5cb5b14610104575b600080fd5b34801561008c57600080fd5b506100956101ed565b6040516100a291906107ee565b60405180910390f35b3480156100b757600080fd5b506100d260048036038101906100cd919061087b565b6101f3565b005b6100ee60048036038101906100e991906108e3565b610291565b6040516100fb91906107ee565b60405180910390f35b34801561011057600080fd5b5061011961050f565b6040516101269190610945565b60405180910390f35b34801561013b57600080fd5b50610144610535565b6040516101519190610945565b60405180910390f35b34801561016657600080fd5b5061016f61055b565b60405161017c91906109f0565b60405180910390f35b34801561019157600080fd5b5061019a6105e9565b6040516101a79190610a71565b60405180910390f35b3480156101bc57600080fd5b506101d760048036038101906101d29190610c5f565b61060f565b6040516101e49190610d5d565b60405180910390f35b60035481565b600160009054906101000a900473ffffffffffffffffffffffffffffffffffffffff1673ffffffffffffffffffffffffffffffffffffffff163373ffffffffffffffffffffffffffffffffffffffff161461024d57600080fd5b80600460006101000a81548173ffffffffffffffffffffffffffffffffffffffff021916908373ffffffffffffffffffffffffffffffffffffffff16021790555050565b6000808290506000808691508173ffffffffffffffffffffffffffffffffffffffff166370a08231306040518263ffffffff1660e01b81526004016102d69190610945565b602060405180830381865afa1580156102f3573d6000803e3d6000fd5b505050506040513d601f19601f820116820180604052508101906103179190610d94565b90508173ffffffffffffffffffffffffffffffffffffffff1663095ea7b3600560009054906101000a900473ffffffffffffffffffffffffffffffffffffffff16836040518363ffffffff1660e01b8152600401610376929190610dc1565b6020604051808303816000875af1158015610395573d6000803e3d6000fd5b505050506040513d601f19601f820116820180604052508101906103b99190610e22565b5060006040518061010001604052808973ffffffffffffffffffffffffffffffffffffffff1681526020018873ffffffffffffffffffffffffffffffffffffffff1681526020018562ffffff1681526020013073ffffffffffffffffffffffffffffffffffffffff168152602001617530426104359190610e7e565b815260200183815260200160008152602001600073ffffffffffffffffffffffffffffffffffffffff168152509050600560009054906101000a900473ffffffffffffffffffffffffffffffffffffffff1673ffffffffffffffffffffffffffffffffffffffff1663414bf389826040518263ffffffff1660e01b81526004016104bf9190610f90565b6020604051808303816000875af11580156104de573d6000803e3d6000fd5b505050506040513d601f19601f820116820180604052508101906105029190610d94565b9450505050509392505050565b600160009054906101000a900473ffffffffffffffffffffffffffffffffffffffff1681565b600260009054906101000a900473ffffffffffffffffffffffffffffffffffffffff1681565b6000805461056890610fdb565b80601f016020809104026020016040519081016040528092919081815260200182805461059490610fdb565b80156105e15780601f106105b6576101008083540402835291602001916105e1565b820191906000526020600020905b8154815290600101906020018083116105c457829003601f168201915b505050505081565b600460009054906101000a900473ffffffffffffffffffffffffffffffffffffffff1681565b6060600460009054906101000a900473ffffffffffffffffffffffffffffffffffffffff1673ffffffffffffffffffffffffffffffffffffffff168573ffffffffffffffffffffffffffffffffffffffff16146106a1576040517f08c379a000000000000000000000000000000000000000000000000000000000815260040161069890611058565b60405180910390fd5b600086116106e4576040517f08c379a00000000000000000000000000000000000000000000000000000000081526004016106db906110c4565b60405180910390fd5b6000828060200190518101906106fa9190611122565b905080600260006101000a81548173ffffffffffffffffffffffffffffffffffffffff021916908373ffffffffffffffffffffffffffffffffffffffff1602179055506000610bb890506000610751888484610291565b9050806003819055503073ffffffffffffffffffffffffffffffffffffffff168773ffffffffffffffffffffffffffffffffffffffff168b7f65c44f6a6a89dc5dfc28cd3c83d11107eab8600ef2ebc3a785cdd7d2f640a7a0898c888f886040516107c095949392919061115e565b60405180910390a45050509695505050505050565b6000819050919050565b6107e8816107d5565b82525050565b600060208201905061080360008301846107df565b92915050565b6000604051905090565b600080fd5b600080fd5b600073ffffffffffffffffffffffffffffffffffffffff82169050919050565b60006108488261081d565b9050919050565b6108588161083d565b811461086357600080fd5b50565b6000813590506108758161084f565b92915050565b60006020828403121561089157610890610813565b5b600061089f84828501610866565b91505092915050565b600062ffffff82169050919050565b6108c0816108a8565b81146108cb57600080fd5b50565b6000813590506108dd816108b7565b92915050565b6000806000606084860312156108fc576108fb610813565b5b600061090a86828701610866565b935050602061091b86828701610866565b925050604061092c868287016108ce565b9150509250925092565b61093f8161083d565b82525050565b600060208201905061095a6000830184610936565b92915050565b600081519050919050565b600082825260208201905092915050565b60005b8381101561099a57808201518184015260208101905061097f565b60008484015250505050565b6000601f19601f8301169050919050565b60006109c282610960565b6109cc818561096b565b93506109dc81856020860161097c565b6109e5816109a6565b840191505092915050565b60006020820190508181036000830152610a0a81846109b7565b905092915050565b6000819050919050565b6000610a37610a32610a2d8461081d565b610a12565b61081d565b9050919050565b6000610a4982610a1c565b9050919050565b6000610a5b82610a3e565b9050919050565b610a6b81610a50565b82525050565b6000602082019050610a866000830184610a62565b92915050565b6000819050919050565b610a9f81610a8c565b8114610aaa57600080fd5b50565b600081359050610abc81610a96565b92915050565b610acb816107d5565b8114610ad657600080fd5b50565b600081359050610ae881610ac2565b92915050565b600063ffffffff82169050919050565b610b0781610aee565b8114610b1257600080fd5b50565b600081359050610b2481610afe565b92915050565b600080fd5b600080fd5b7f4e487b7100000000000000000000000000000000000000000000000000000000600052604160045260246000fd5b610b6c826109a6565b810181811067ffffffffffffffff82111715610b8b57610b8a610b34565b5b80604052505050565b6000610b9e610809565b9050610baa8282610b63565b919050565b600067ffffffffffffffff821115610bca57610bc9610b34565b5b610bd3826109a6565b9050602081019050919050565b82818337600083830152505050565b6000610c02610bfd84610baf565b610b94565b905082815260208101848484011115610c1e57610c1d610b2f565b5b610c29848285610be0565b509392505050565b600082601f830112610c4657610c45610b2a565b5b8135610c56848260208601610bef565b91505092915050565b60008060008060008060c08789031215610c7c57610c7b610813565b5b6000610c8a89828a01610aad565b9650506020610c9b89828a01610ad9565b9550506040610cac89828a01610866565b9450506060610cbd89828a01610866565b9350506080610cce89828a01610b15565b92505060a087013567ffffffffffffffff811115610cef57610cee610818565b5b610cfb89828a01610c31565b9150509295509295509295565b600081519050919050565b600082825260208201905092915050565b6000610d2f82610d08565b610d398185610d13565b9350610d4981856020860161097c565b610d52816109a6565b840191505092915050565b60006020820190508181036000830152610d778184610d24565b905092915050565b600081519050610d8e81610ac2565b92915050565b600060208284031215610daa57610da9610813565b5b6000610db884828501610d7f565b91505092915050565b6000604082019050610dd66000830185610936565b610de360208301846107df565b9392505050565b60008115159050919050565b610dff81610dea565b8114610e0a57600080fd5b50565b600081519050610e1c81610df6565b92915050565b600060208284031215610e3857610e37610813565b5b6000610e4684828501610e0d565b91505092915050565b7f4e487b7100000000000000000000000000000000000000000000000000000000600052601160045260246000fd5b6000610e89826107d5565b9150610e94836107d5565b9250828201905080821115610eac57610eab610e4f565b5b92915050565b610ebb8161083d565b82525050565b610eca816108a8565b82525050565b610ed9816107d5565b82525050565b610ee88161081d565b82525050565b61010082016000820151610f056000850182610eb2565b506020820151610f186020850182610eb2565b506040820151610f2b6040850182610ec1565b506060820151610f3e6060850182610eb2565b506080820151610f516080850182610ed0565b5060a0820151610f6460a0850182610ed0565b5060c0820151610f7760c0850182610ed0565b5060e0820151610f8a60e0850182610edf565b50505050565b600061010082019050610fa66000830184610eee565b92915050565b7f4e487b7100000000000000000000000000000000000000000000000000000000600052602260045260246000fd5b60006002820490506001821680610ff357607f821691505b60208210810361100657611005610fac565b5b50919050565b7f57726f6e67206173736574207265636569766564000000000000000000000000600082015250565b600061104260148361096b565b915061104d8261100c565b602082019050919050565b6000602082019050818103600083015261107181611035565b9050919050565b7f4d75737420706179206174206c65617374203120776569000000000000000000600082015250565b60006110ae60178361096b565b91506110b982611078565b602082019050919050565b600060208201905081810360008301526110dd816110a1565b9050919050565b60006110ef8261081d565b9050919050565b6110ff816110e4565b811461110a57600080fd5b50565b60008151905061111c816110f6565b92915050565b60006020828403121561113857611137610813565b5b60006111468482850161110d565b91505092915050565b61115881610aee565b82525050565b600060a082019050611173600083018861114f565b6111806020830187610936565b61118d6040830186610936565b61119a60608301856107df565b6111a760808301846107df565b969550505050505056fea26469706673582212203cdf8f0fbf55c55e9989eb268244068199fed879faf98035c513aba2b34b642464736f6c63430008150033",
  "linkReferences": {},
  "deployedLinkReferences": {}
}